:100000000C942A000C9447000C9447000C94470071
:100010000C9447000C9447000C9447000C94470044
:100020000C9447000C9447000C9447000C94470034
:100030000C9447000C9447000C9447000C94470024
:100040000C9447000C9447000C9447000C94470014
:100050000C94470011241FBECFE5D8E0DEBFCDBF12
:1000600011E0A0E6B0E0E2E1F7E502C005900D92F4
:10007000A63BB107D9F711E0A6EBB1E001C01D9294
:10008000A73BB107E1F70E9404290C94872B0C943D
:100090000000EF92FF920F931F937B018C0120E0F1
:1000A00030E040E05FE40E94F50388238CF0C80153
:1000B000B70120E030E040E05FE40E94C1010E940F
:1000C00055049B01AC01205030404040504806C0D0
:1000D000C801B7010E9455049B01AC01B901CA01D6
:1000E0001F910F91FF90EF900895A0E0B0E0EBE733
:1000F000F0E00C94502BDC012B01FA019C91923022
:1001000008F439C1EB018881823008F433C194309E
:1001100069F4843009F02FC111969C91119789815F
:10012000981709F428C1A5E9B1E025C1843009F484
:1001300021C18230A9F4923009F01DC19A01AD01AC
:1001400088E0EA010990AE01E90109929E0181501F
:10015000C1F7E201898111969C918923818308C1AD
:10016000923009F407C112962D903C901397EB0141
:100170008A819B811496AD90BD90CD90DC901797AD
:10018000EC80FD800E811F819101281B390BB90184
:1001900037FF04C066277727621B730B6032710537
:1001A0000CF061C0121613066CF537014801062EDB
:1001B00004C096948794779467940A94D2F721E0C8
:1001C00030E040E050E004C0220F331F441F551FB1
:1001D0006A95D2F721503040404050402E213F21B7
:1001E00040235123211531054105510521F021E01E
:1001F00030E040E050E079018A01E628F72808293C
:1002000019293CC0232BD1F1260E371E350146019A
:10021000062E04C096948794779467940A94D2F734
:1002200021E030E040E050E004C0220F331F441FC3
:10023000551F6A95D2F721503040404050402A2146
:100240003B214C215D21211531054105510521F04E
:1002500021E030E040E050E059016A01A628B728CB
:10026000C828D9280BC0821593052CF01C01AA249C
:10027000BB24650103C0EE24FF24870111969C91E5
:10028000D20111968C91981709F445C0992339F041
:10029000A80197012A193B094C095D0906C0A6016E
:1002A00095012E193F09400B510B57FD08C01182D3
:1002B0003382228224833583468357831DC081E0A5
:1002C00081833382228288279927DC01821B930B4A
:1002D000A40BB50B84839583A683B7830DC0220F2F
:1002E000331F441F551F24833583468357838281E0
:1002F000938101979383828324813581468157813D
:10030000DA01C9010197A109B1098F5F9F4FAF4F72
:10031000BF4328F30BC0918333822282EA0CFB1C7B
:100320000C1D1D1DE482F5820683178383E0808304
:10033000248135814681578157FF1AC0C901AA27F8
:1003400097FDA095BA2F81709070A070B0705695EF
:10035000479537952795822B932BA42BB52B848318
:100360009583A683B7838281938101969383828349
:10037000DF0101C0D201CD01CDB7DEB7E2E10C94BF
:100380006C2BA0E2B0E0E7ECF1E00C945C2B69830D
:100390007A838B839C832D833E834F835887E9E048
:1003A000EE2EF12CEC0EFD1ECE010196B7010E943F
:1003B0007E058E010F5E1F4FCE010596B8010E948B
:1003C0007E058A8991E089278A8BC701B801AE0131
:1003D000475E5F4F0E9475000E94A904A096E6E068
:1003E0000C94782BA0E2B0E0E8EFF1E00C945C2BE9
:1003F00069837A838B839C832D833E834F835887C5
:10040000F9E0EF2EF12CEC0EFD1ECE010196B701A6
:100410000E947E058E010F5E1F4FCE010596B8012A
:100420000E947E05C701B801AE01475E5F4F0E9482
:1004300075000E94A904A096E6E00C94782BA0E237
:10044000B0E0E5E2F2E00C94502B69837A838B8371
:100450009C832D833E834F835887CE010196BE0136
:10046000675F7F4F0E947E05CE010596BE016F5EDD
:100470007F4F0E947E059985923088F0898982306D
:10048000C8F0943019F4823051F404C0843029F457
:10049000923081F485E991E0C6C0923049F420E0C1
:1004A0009A858A89981321E02A87CE010996BBC0D4
:1004B000823049F420E09A858A89981321E02A8BBA
:1004C000CE014196B0C02D843E844F8458886D88FB
:1004D0007E888F88988CEE24FF248701AA24BB2471
:1004E000650140E050E060E070E0E0E0F0E0C10174
:1004F00081709070892BE9F0E60CF71C081D191D1E
:100500009A01AB012A0D3B1D4C1D5D1D80E090E062
:10051000A0E0B0E0E614F7040805190520F481E036
:1005200090E0A0E0B0E0BA01A901480F591F6A1F8E
:100530007B1FAA0CBB1CCC1CDD1C97FE08C081E0F5
:1005400090E0A0E0B0E0A82AB92ACA2ADB2A3196B6
:10055000E032F10549F0660C771C881C991C569412
:10056000479437942794C3CFFA85EA892B893C892D
:100570008B859C85280F391F2E5F3F4F17C0CA01FE
:1005800081709070892B61F016950795F794E79428
:1005900080E090E0A0E0B0E8E82AF92A0A2B1B2BC3
:1005A00076956795579547952F5F3F4F77FDE7CF36
:1005B0000CC0440F551F661F771F17FD4160EE0CDE
:1005C000FF1C001F111F21503040403090E05907A0
:1005D00090E0690790E4790760F32B8F3C8FDB0193
:1005E000CA018F779070A070B07080349105A1051A
:1005F000B10561F447FD0AC0E114F10401051105DC
:1006000029F0405C5F4F6F4F7F4F40781A8EFE1786
:1006100011F081E08A8F4D8F5E8F6F8F78A383E01A
:10062000898FCE0149960E94A904A096E2E10C941C
:100630006C2BA8E1B0E0EFE1F3E00C94582B698358
:100640007A838B839C832D833E834F835887B9E0C5
:10065000EB2EF12CEC0EFD1ECE010196B7010E948F
:100660007E058E010F5E1F4FCE010596B8010E94D8
:100670007E052985223008F47EC03989323010F495
:10068000B8017CC08A859A8989278A87243011F02D
:10069000223031F4231709F06EC065E971E06EC0B5
:1006A000343039F41D861E861F86188A1C861B86E8
:1006B00004C0323021F484E08987B7015FC02B8504
:1006C0003C858B899C89281B390B3C872B87ED84C3
:1006D000FE840F851889AD88BE88CF88D88CEA142F
:1006E000FB040C051D0540F4EE0CFF1C001F111F40
:1006F000215030403C872B8720E030E040E050E044
:1007000080E090E0A0E0B0E460E070E0EA14FB0478
:100710000C051D0540F0282B392B4A2B5B2BEA18C2
:10072000FB080C091D09B695A79597958795EE0CC2
:10073000FF1C001F111F6F5F7F4F6F31710531F775
:10074000DA01C9018F779070A070B0708034910584
:10075000A105B10561F427FD0AC0E114F10401050A
:10076000110529F0205C3F4F4F4F5F4F20782D87B8
:100770003E874F87588BBE01675F7F4FCB010E943A
:10078000A9046896EAE00C94742BA8E1B0E0EBECC5
:10079000F3E00C945C2B69837A838B839C832D8399
:1007A0003E834F83588789E0E82EF12CEC0EFD1E26
:1007B000CE010196B7010E947E058E010F5E1F4F8C
:1007C000CE010596B8010E947E058985823040F0F1
:1007D0008989823028F0C701B8010E94F60501C05E
:1007E0008FEF6896E6E00C94782BA8E1B0E0EBEF91
:1007F000F3E00C945C2B69837A838B839C832D8339
:100800003E834F83588789E0E82EF12CEC0EFD1EC5
:10081000CE010196B7010E947E058E010F5E1F4F2B
:10082000CE010596B8010E947E058985823040F090
:100830008989823028F0C701B8010E94F60501C0FD
:100840008FEF6896E6E00C94782BA8E1B0E0EBE23D
:10085000F4E00C945C2B69837A838B839C832D83D7
:100860003E834F83588789E0E82EF12CEC0EFD1E65
:10087000CE010196B7010E947E058E010F5E1F4FCB
:10088000CE010596B8010E947E058985823040F030
:100890008989823028F0C701B8010E94F60501C09D
:1008A00081E06896E6E00C94782BACE0B0E0EBE5F4
:1008B000F4E00C94602B69837A838B839C83CE0154
:1008C0000196BE016B5F7F4F0E947E058D81823055
:1008D00061F1823050F1843021F48E81882351F10E
:1008E0002EC02F81388537FD20C06E812F31310514
:1008F0001CF06623F9F023C08EE190E0821B930B7D
:1009000029853A854B855C8504C056954795379572
:1009100027958A95D2F76623B1F05095409530958A
:1009200021953F4F4F4F5F4F0EC020E030E040E039
:1009300050E009C02FEF3FEF4FEF5FE704C020E02A
:1009400030E040E050E8B901CA012C96E2E00C9496
:100950007C2BDF92EF92FF920F931F93FC01E480B8
:10096000F58006811781D1808081823048F480E053
:1009700090E0A0E1B0E0E82AF92A0A2B1B2BA5C0E1
:10098000843009F49FC0823021F4EE24FF248701D3
:1009900005C0E114F1040105110519F4E0E0F0E0EF
:1009A00096C0628173819FEF623879070CF05BC05B
:1009B00022E83FEF261B370B2A3131052CF020E0CF
:1009C00030E040E050E02AC0B801A701022E04C088
:1009D00076956795579547950A94D2F781E090E010
:1009E000A0E0B0E004C0880F991FAA1FBB1F2A9582
:1009F000D2F70197A109B1098E219F21A023B1232C
:100A00000097A105B10521F081E090E0A0E0B0E001
:100A10009A01AB01282B392B4A2B5B2BDA01C90138
:100A20008F779070A070B07080349105A105B105EA
:100A300039F427FF09C0205C3F4F4F4F5F4F04C080
:100A4000215C3F4F4F4F5F4FE0E0F0E02030A0E0EF
:100A50003A07A0E04A07A0E45A0710F0E1E0F0E00E
:100A600079018A0127C06038710564F5FB01E158FE
:100A7000FF4FD801C7018F779070A070B07080349D
:100A80009105A105B10539F4E7FE0DC080E490E0C1
:100A9000A0E0B0E004C08FE390E0A0E0B0E0E80E9A
:100AA000F91E0A1F1B1F17FF05C016950795F7941F
:100AB000E794319687E016950795F794E7948A9521
:100AC000D1F705C0EE24FF248701EFEFF0E06E2F91
:100AD000679566276795902F9F77D794DD24D794E5
:100AE0008E2F8695492F462B582F5D29B701CA01B5
:100AF0001F910F91FF90EF90DF900895FC01DB01B3
:100B0000408151812281622F6F7770E0221F22275E
:100B1000221F9381892F880F822B282F30E0991F65
:100B20009927991F11969C93119721153105A9F5C5
:100B3000411551056105710511F482E037C082E865
:100B40009FEF13969C938E9312979A01AB0167E0E7
:100B5000220F331F441F551F6A95D1F783E08C93F2
:100B60000DC0220F331F441F551F12968D919C916B
:100B70001397019713969C938E931297203080E0E1
:100B8000380780E0480780E4580758F314962D93FF
:100B90003D934D935C93179708952F3F310579F45A
:100BA000411551056105710519F484E08C93089590
:100BB00064FF03C081E08C9312C01C9210C02F57B9
:100BC000304013963C932E93129783E08C9387E0EA
:100BD000440F551F661F771F8A95D1F770641496CE
:100BE0004D935D936D937C93179708951F93DC014C
:100BF000FB019C91923008F447C08081823008F458
:100C000043C0943051F411961C91843099F5818140
:100C1000682F70E0611B71093FC0843021F0923071
:100C200031F48230B9F18181882389F12DC0119688
:100C30001C9111978230F1F081811817D9F4129626
:100C40002D913C911397828193818217930794F0A1
:100C500028173907BCF014968D919D910D90BC9189
:100C6000A02D2481358146815781281739074A07ED
:100C70005B0718F4112341F00AC082179307A407F9
:100C8000B50740F4112319F061E070E005C06FEF83
:100C90007FEF02C060E070E0CB011F910895DF9309
:100CA000CF9300D00F92CDB7DEB783E390E09B8364
:100CB0008A8380E88983E9E2F0E08A818083E0E446
:100CC000F0E08A819B81892F99278083ABE2B0E095
:100CD000EBE2F0E080818D7F8C93ABE2B0E0EBE261
:100CE000F0E080818E7F8C93AAE2B0E0EAE2F0E04F
:100CF000808180618C93AAE2B0E0EAE2F0E080813A
:100D000088608C93AAE2B0E0EAE2F0E080818B7F19
:100D10008C938981846089838981826089838981B8
:100D20008F7B898389818F7E898389818F7D898368
:100D300089818860898389818E7F8983E0E4F0E0FE
:100D4000898180830F900F900F90CF91DF9108954C
:100D5000DF93CF930F92CDB7DEB78983EBE2F0E05C
:100D60008081829586958770882F90E08170907041
:100D70000097A1F3ECE2F0E0898180830F90CF919E
:100D8000DF910895DF93CF93CDB7DEB7EBE2F0E0CC
:100D900080818823DCF7ECE2F0E08081CF91DF9165
:100DA0000895DF93CF93CDB7DEB7A1E2B0E0E1E2E3
:100DB000F0E080818E7F8C93A1E2B0E0E1E2F0E090
:100DC00080818D7F8C93E0E2F0E08CE08083A6E56B
:100DD000B0E0E6E5F0E0808184608C93A6E5B0E0C9
:100DE000E6E5F0E0808180648C93CF91DF910895F7
:100DF000DF93CF930F92CDB7DEB78983E2E2F0E0C5
:100E00008981880F8083A6E5B0E0E6E5F0E0808187
:100E100084608C93A6E5B0E0E6E5F0E08081806434
:100E20008C930F90CF91DF910895DF93CF93CDB73F
:100E3000DEB7E6E5F0E084EA8083E6E5F0E0808175
:100E40008823DCF7CF91DF910895DF93CF93CDB75F
:100E5000DEB7A6E5B0E0E6E5F0E0808180618C9346
:100E6000A6E5B0E0E6E5F0E0808180688C93CF9164
:100E7000DF910895DF93CF930F92CDB7DEB78983CB
:100E8000E3E2F0E08981880F8083A3E2B0E0E3E24F
:100E9000F0E080818E7F8C93A6E5B0E0E6E5F0E09F
:100EA00080818F7D8C93A6E5B0E0E6E5F0E080815F
:100EB00080688C93E6E5F0E080818823DCF70F9072
:100EC000CF91DF910895DF93CF930F92CDB7DEB727
:100ED0008983E3E2F0E08981880F8083A3E2B0E0B8
:100EE000E3E2F0E0808181608C93A6E5B0E0E6E586
:100EF000F0E080818F7D8C93A6E5B0E0E6E5F0E040
:100F0000808180688C93E6E5F0E080818823DCF7BF
:100F10000F90CF91DF910895DF93CF930F92CDB7CC
:100F2000DEB78983E3E2F0E089818083A6E5B0E063
:100F3000E6E5F0E0808180688C93E6E5F0E0808172
:100F40008823DCF70F90CF91DF910895DF93CF9343
:100F5000CDB7DEB7A6E5B0E0E6E5F0E080818068D9
:100F60008C93E6E5F0E080818823DCF7E3E2F0E0B3
:100F70008081CF91DF910895DF93CF93CDB7DEB716
:100F8000E1E2F0E08081882F90E0887F90708036E9
:100F90009105B1F7A6E5B0E0E6E5F0E08081806874
:100FA0008C93E6E5F0E080818823DCF7E3E2F0E073
:100FB0008081CF91DF910895DF93CF93CDB7DEB7D6
:100FC00027970FB6F894DEBF0FBECDBF89836A8323
:100FD0004B838A81883008F0EAC08B81813009F028
:100FE0006FC08981282F30E03F832E838E819F81BF
:100FF0008130910549F12E813F81223031052CF459
:101000008E819F81009761F0D2C02E813F81223076
:10101000310571F18E819F8183309105E9F1C7C05F
:10102000AAE3B0E0EAE3F0E08081482F8A81282F2C
:1010300030E081E090E0022E02C0880F991F0A94F0
:10104000E2F7842B8C93B3C0A7E3B0E0E7E3F0E0D2
:101050008081482F8A81282F30E081E090E0022EA5
:1010600002C0880F991F0A94E2F7842B8C939FC0CB
:10107000A4E3B0E0E4E3F0E08081482F8A81282FE8
:1010800030E081E090E0022E02C0880F991F0A94A0
:10109000E2F7842B8C938BC0A1E3B0E0E1E3F0E0B6
:1010A0008081482F8A81282F30E081E090E0022E55
:1010B00002C0880F991F0A94E2F7842B8C9377C0A3
:1010C0008B81882309F073C08981282F30E03D830C
:1010D0002C838C819D818130910559F12C813D813A
:1010E000223031052CF48C819D81009769F05FC01E
:1010F0002C813D812230310589F18C819D818330A5
:10110000910509F440C053C0AAE3B0E0EAE3F0E07F
:101110008081482F8A81282F30E081E090E0022EE4
:1011200002C0880F991F0A94E2F7809584238C935C
:101130003EC0A7E3B0E0E7E3F0E08081482F8A817A
:10114000282F30E081E090E0022E02C0880F991F26
:101150000A94E2F7809584238C9329C0A4E3B0E03D
:10116000E4E3F0E08081482F8A81282F30E081E09D
:1011700090E0022E02C0880F991F0A94E2F7809532
:1011800084238C9314C0A1E3B0E0E1E3F0E080811C
:10119000482F8A81282F30E081E090E0022E02C0A3
:1011A000880F991F0A94E2F7809584238C932796E1
:1011B0000FB6F894DEBF0FBECDBFCF91DF9108957B
:1011C000DF93CF93CDB7DEB727970FB6F894DEBF86
:1011D0000FBECDBF89836A834B838A81883008F034
:1011E000EAC08B81813009F06FC08981282F30E0FF
:1011F0003F832E838E819F818130910549F12E811D
:101200003F81223031052CF48E819F81009761F05F
:10121000D2C02E813F812230310571F18E819F81B4
:1012200083309105E9F1C7C0ABE3B0E0EBE3F0E058
:101230008081482F8A81282F30E081E090E0022EC3
:1012400002C0880F991F0A94E2F7842B8C93B3C0D5
:10125000A8E3B0E0E8E3F0E08081482F8A81282FFE
:1012600030E081E090E0022E02C0880F991F0A94BE
:10127000E2F7842B8C939FC0A5E3B0E0E5E3F0E0B8
:101280008081482F8A81282F30E081E090E0022E73
:1012900002C0880F991F0A94E2F7842B8C938BC0AD
:1012A000A2E3B0E0E2E3F0E08081482F8A81282FBA
:1012B00030E081E090E0022E02C0880F991F0A946E
:1012C000E2F7842B8C9377C08B81882309F073C05D
:1012D0008981282F30E03D832C838C819D81813052
:1012E000910559F12C813D81223031052CF48C81FE
:1012F0009D81009769F05FC02C813D8122303105CE
:1013000089F18C819D818330910509F440C053C0DF
:10131000ABE3B0E0EBE3F0E08081482F8A81282F37
:1013200030E081E090E0022E02C0880F991F0A94FD
:10133000E2F7809584238C933EC0A8E3B0E0E8E315
:10134000F0E08081482F8A81282F30E081E090E012
:10135000022E02C0880F991F0A94E2F78095842319
:101360008C9329C0A5E3B0E0E5E3F0E08081482F4D
:101370008A81282F30E081E090E0022E02C0880FA1
:10138000991F0A94E2F7809584238C9314C0A2E3FA
:10139000B0E0E2E3F0E08081482F8A81282F30E03E
:1013A00081E090E0022E02C0880F991F0A94E2F7B4
:1013B000809584238C9327960FB6F894DEBF0FBEDA
:1013C000CDBFCF91DF910895DF93CF9300D000D0B0
:1013D0000F92CDB7DEB789836A838A81883008F09F
:1013E0006FC08981282F30E03D832C834C815D8143
:1013F0004130510549F18C819D818230910534F451
:101400002C813D812115310561F057C04C815D81F2
:101410004230510561F18C819D8183309105D1F17C
:101420004CC0E9E3F0E08081282F30E08A81882FEA
:1014300090E0A90102C0559547958A95E2F7CA0147
:10144000582F51705B833EC0E6E3F0E08081282F87
:1014500030E08A81882F90E0A90102C05595479518
:101460008A95E2F7CA01582F51705B832BC0E3E3E2
:10147000F0E08081282F30E08A81882F90E0A90158
:1014800002C0559547958A95E2F7CA01582F5170C9
:101490005B8318C0E0E3F0E08081282F30E08A8190
:1014A000882F90E0A90102C0559547958A95E2F7EB
:1014B000CA01582F51705B8305C08FEF8B8302C028
:1014C0009FEF9B838B810F900F900F900F900F9049
:1014D000CF91DF910895DF93CF9300D000D0CDB7A7
:1014E000DEB789836A838981282F30E03C832B8390
:1014F0008B819C8181309105D1F02B813C81223000
:1015000031052CF48B819C81009761F01EC02B81EA
:101510003C812230310581F08B819C8183309105A3
:1015200081F013C0EAE3F0E08A8180830EC0E7E334
:10153000F0E08A81808309C0E4E3F0E08A8180835F
:1015400004C0E1E3F0E08A8180830F900F900F9058
:101550000F90CF91DF910895DF93CF9300D000D00B
:10156000CDB7DEB789836A838981282F30E03C8339
:101570002B838B819C8181309105D1F02B813C8123
:10158000223031052CF48B819C81009761F01EC0C4
:101590002B813C812230310581F08B819C8183300D
:1015A000910581F013C0EBE3F0E08A8180830EC0E7
:1015B000E8E3F0E08A81808309C0E5E3F0E08A8116
:1015C000808304C0E2E3F0E08A8180830F900F9073
:1015D0000F900F90CF91DF910895DF93CF9300D0BC
:1015E00000D0CDB7DEB789836A838A81883008F05E
:1015F0006EC08981282F30E03C832B838B819C81B6
:101600008130910549F12B813C81223031052CF448
:101610008B819C81009761F05AC02B813C812230E4
:10162000310571F18B819C8183309105E9F14FC0C7
:10163000A9E3B0E0E9E3F0E08081482F8A81282F18
:1016400030E081E090E0022E02C0880F991F0A94DA
:10165000E2F784278C933BC0A6E3B0E0E6E3F0E03A
:101660008081482F8A81282F30E081E090E0022E8F
:1016700002C0880F991F0A94E2F784278C9327C031
:10168000A3E3B0E0E3E3F0E08081482F8A81282FD4
:1016900030E081E090E0022E02C0880F991F0A948A
:1016A000E2F784278C9313C0A0E3B0E0E0E3F0E01E
:1016B0008081482F8A81282F30E081E090E0022E3F
:1016C00002C0880F991F0A94E2F784278C930F9029
:1016D0000F900F900F90CF91DF910895DF93CF93EC
:1016E000CDB7DEB7E8970FB6F894DEBF0FBECDBF1B
:1016F00080E06FEF0E946B0A82E065E041E00E94AB
:10170000DC0782E066E041E00E94DC0782E067E0FF
:1017100041E00E94DC0780E090E0ACE0B2E48DABF9
:101720009EABAFABB8AF6DA97EA98FA998AD20E0F5
:1017300030E04AEF54E40E941F02DC01CB0189AB88
:101740009AABABABBCAB69A97AA98BA99CA920E0E9
:1017500030E040E85FE30E94250488232CF481E018
:1017600090E098AB8FA73FC069A97AA98BA99CA9E3
:1017700020E03FEF4FE757E40E94C50318164CF5F1
:101780006DA97EA98FA998AD20E030E040E251E438
:101790000E941F02DC01CB01BC01CD010E94490067
:1017A000DC01CB0198AB8FA70FC088EC90E09EA71F
:1017B0008DA78DA59EA50197F1F79EA78DA78FA553
:1017C00098A9019798AB8FA78FA598A9009769F75B
:1017D00014C069A97AA98BA99CA90E944900DC01BF
:1017E000CB0198AB8FA78FA598A99CA78BA78BA59A
:1017F0009CA50197F1F79CA78BA788E30E94650D34
:1018000080E090E0A8E4B2E48FA398A7A9A7BAA7C4
:101810006FA178A589A59AA520E030E04AEF54E4AD
:101820000E941F02DC01CB018BA39CA3ADA3BEA32E
:101830006BA17CA18DA19EA120E030E040E85FE398
:101840000E94250488232CF481E090E09AA389A3C8
:101850003FC06BA17CA18DA19EA120E03FEF4FE78F
:1018600057E40E94C50318164CF56FA178A589A509
:101870009AA520E030E040E251E40E941F02DC0122
:10188000CB01BC01CD010E944900DC01CB019AA330
:1018900089A30FC088EC90E098A38F8F8F8D98A1BB
:1018A0000197F1F798A38F8F89A19AA101979AA325
:1018B00089A389A19AA1009769F714C06BA17CA1A3
:1018C0008DA19EA10E944900DC01CB019AA389A3AE
:1018D00089A19AA19E8F8D8F8D8D9E8D0197F1F795
:1018E0009E8F8D8F8CE00E94650D80E090E0A8E4D3
:1018F000B2E4898F9A8FAB8FBC8F698D7A8D8B8D77
:101900009C8D20E030E04AEF54E40E941F02DC018D
:10191000CB018D8B9E8BAF8BB88F6D897E898F8924
:10192000988D20E030E040E85FE30E9425048823A2
:101930002CF481E090E09C8B8B8B3FC06D897E897D
:101940008F89988D20E03FEF4FE757E40E94C50351
:1019500018164CF5698D7A8D8B8D9C8D20E030E0CA
:1019600040E251E40E941F02DC01CB01BC01CD0129
:101970000E944900DC01CB019C8B8B8B0FC088EC53
:1019800090E09A8B898B89899A890197F1F79A8BD4
:10199000898B8B899C8901979C8B8B8B8B899C89EC
:1019A000009769F714C06D897E898F89988D0E9490
:1019B0004900DC01CB019C8B8B8B8B899C89988B9C
:1019C0008F878F8598890197F1F7988B8F878CE0A7
:1019D0000E94650D80E090E0A0E0B0E48B879C87DA
:1019E000AD87BE876B857C858D859E8520E030E048
:1019F0004AEF54E40E941F02DC01CB018F839887D9
:101A0000A987BA876F81788589859A8520E030E03B
:101A100040E85FE30E94250488232CF481E090E0F5
:101A20009E838D833FC06F81788589859A8520E06C
:101A30003FEF4FE757E40E94C50318164CF56B853E
:101A40007C858D859E8520E030E040E251E40E9457
:101A50001F02DC01CB01BC01CD010E944900DC0169
:101A6000CB019E838D830FC088EC90E09C838B8399
:101A70008B819C810197F1F79C838B838D819E8163
:101A800001979E838D838D819E81009769F714C095
:101A90006F81788589859A850E944900DC01CB0198
:101AA0009E838D838D819E819A83898389819A818A
:101AB0000197F1F79A838983E8960FB6F894DEBF11
:101AC0000FBECDBFCF91DF910895DF93CF93CDB7F8
:101AD000DEB72F970FB6F894DEBF0FBECDBF8F874E
:101AE00082E065E040E00E94E00882E066E040E0DD
:101AF0000E94E00880E06F850E94AC0A82E067E007
:101B000041E00E94E00880E090E0A0E8BFE38B871E
:101B10009C87AD87BE876B857C858D859E8520E003
:101B200030E04AEF54E40E941F02DC01CB018F83B6
:101B30009887A987BA876F81788589859A8520E0FB
:101B400030E040E85FE30E94250488232CF481E024
:101B500090E09E838D833FC06F81788589859A85CB
:101B600020E03FEF4FE757E40E94C50318164CF5FD
:101B70006B857C858D859E8520E030E040E251E4D8
:101B80000E941F02DC01CB01BC01CD010E94490073
:101B9000DC01CB019E838D830FC088EC90E09C8399
:101BA0008B838B819C810197F1F79C838B838D8143
:101BB0009E8101979E838D838D819E81009769F719
:101BC00014C06F81788589859A850E944900DC015F
:101BD000CB019E838D838D819E819A8389838981A8
:101BE0009A810197F1F79A83898382E067E040E068
:101BF0000E94E0082F960FB6F894DEBF0FBECDBF4F
:101C0000CF91DF910895DF93CF93CDB7DEB72F97B4
:101C10000FB6F894DEBF0FBECDBF8F8782E065E0C0
:101C200041E00E94E00882E066E040E00E94E008B7
:101C300080E06F850E94AC0A82E067E041E00E948C
:101C4000E00880E090E0A0E8BFE38B879C87AD8749
:101C5000BE876B857C858D859E8520E030E04AEFD0
:101C600054E40E941F02DC01CB018F839887A9876F
:101C7000BA876F81788589859A8520E030E040E8D1
:101C80005FE30E94250488232CF481E090E09E838A
:101C90008D833FC06F81788589859A8520E03FEFED
:101CA0004FE757E40E94C50318164CF56B857C85F9
:101CB0008D859E8520E030E040E251E40E941F02C5
:101CC000DC01CB01BC01CD010E944900DC01CB014C
:101CD0009E838D830FC088EC90E09C838B838B81E7
:101CE0009C810197F1F79C838B838D819E81019765
:101CF0009E838D838D819E81009769F714C06F81CB
:101D0000788589859A850E944900DC01CB019E83F4
:101D10008D838D819E819A83898389819A810197A0
:101D2000F1F79A83898382E067E040E00E94E0084F
:101D30002F960FB6F894DEBF0FBECDBFCF91DF91C7
:101D40000895DF93CF9300D00F92CDB7DEB79B837A
:101D50008A8319820EC08981282F30E08A819B8175
:101D6000FC01E20FF31F80810E94030E89818F5FC7
:101D700089838981282F30E08A819B81FC01E20FD1
:101D8000F31F8081882339F70F900F900F90CF9128
:101D9000DF910895DF93CF9300D000D0CDB7DEB7A9
:101DA00089836A838981282F30E03C832B838B8150
:101DB0009C818130910531F02B813C8122303105AD
:101DC00031F009C08A8180580E94650D04C08A8163
:101DD00080540E94650D0F900F900F900F90CF913F
:101DE000DF9108950F931F93DF93CF93CDB7DEB7A5
:101DF00060970FB6F894DEBF0FBECDBF6D877E87AC
:101E00008F87988B89E089838D859E85AF85B8897A
:101E10000097A105B10521F480E30E94030E44C0A0
:101E20001C862EC08981082F10E08D859E85AF8588
:101E3000B8892AE030E040E050E0BC01CD010E94CA
:101E40002E2BDC01CB01282F205DCE010296FC0158
:101E5000E00FF11F20838D859E85AF85B8892AE02C
:101E600030E040E050E0BC01CD010E942E2BDA01B1
:101E7000C9018D879E87AF87B88B898181508983FF
:101E80008D859E85AF85B8890097A105B10551F66E
:101E90008981882F90E09C012F5F3F4FCE010296F1
:101EA000820F931F0E94A10E60960FB6F894DEBFBA
:101EB0000FBECDBFCF91DF911F910F910895DF939A
:101EC000CF930F92CDB7DEB789838981882321F420
:101ED0008EE00E94650D0DC08981813021F48FE074
:101EE0000E94650D06C08981823019F48CE00E9441
:101EF000650D0F90CF91DF910895DF93CF93CDB70C
:101F0000DEB76C970FB6F894DEBF0FBECDBF8A8FD9
:101F10007C8F6B8F8A8D882F90E00896880F991F91
:101F2000880F991F880F991F0E94650D80E090E02F
:101F3000A0E2B2E48D8B9E8BAF8BB88F6D897E89CA
:101F40008F89988D2BEA3AEA4AE250E40E941F02F8
:101F5000DC01CB01898B9A8BAB8BBC8B69897A892D
:101F60008B899C8920E030E040E85FE30E942504F3
:101F700088231CF481E0888B91C069897A898B89D8
:101F80009C8920E030E04FE753E40E94C503181617
:101F90000CF07BC06D897E898F89988D20E030E0C0
:101FA0004AE754E40E941903DC01CB018C879D872A
:101FB000AE87BF876C857D858E859F8520E030E06C
:101FC0004AEF54E40E941F02DC01CB018887998705
:101FD000AA87BB87688579858A859B8520E030E064
:101FE00040E85FE30E94250488232CF481E090E020
:101FF0009F838E833FC0688579858A859B8520E095
:102000003FEF4FE757E40E94C50318164CF56C8567
:102010007D858E859F8520E030E040E251E40E947E
:102020001F02DC01CB01BC01CD010E944900DC0193
:10203000CB019F838E830FC088EC90E09D838C83BF
:102040008C819D810197F1F79D838C838E819F8187
:1020500001979F838E838E819F81009769F724C0AB
:10206000688579858A859B850E944900DC01CB01C2
:102070009F838E838E819F819B838A838A819B81AC
:102080000197F1F79B838A830FC069897A898B89CD
:102090009C890E944900DC01CB01888B8889898357
:1020A00089818A95F1F78983198E0EC0898D282F31
:1020B00030E08B8D9C8DFC01E20FF31F80810E942C
:1020C000030E898D8F5F898F898D883078F36C96A8
:1020D0000FB6F894DEBF0FBECDBFCF91DF9108954C
:1020E000DF93CF930F92CDB7DEB7898389810E94AA
:1020F000030E0F90CF91DF910895DF93CF930F924E
:10210000CDB7DEB7198220C08981843068F4898117
:10211000882F90E0FC01E355FE4F908181E0692F0C
:1021200041E00E94DC070DC08981882F90E0049770
:10213000FC01EF54FE4F908181E0692F40E00E9446
:10214000DC0789818F5F898389818830E8F281E0AB
:102150006FEF0E94AC0A0F90CF91DF910895DF934B
:10216000CF93CDB7DEB763970FB6F894DEBF0FBE3F
:10217000CDBF188A8FEF8F871B8ADDC08B89882F90
:1021800090E0FC01E355FE4F908181E0692F40E033
:102190000E94E0081A8AB9C08A89882F90E0FC0161
:1021A000EF54FE4F908181E0692F0E94E409898BF2
:1021B0008989882309F0A6C080E090E0A8ECB1E40A
:1021C0008B879C87AD87BE876B857C858D859E853B
:1021D00020E030E04AEF54E40E941F02DC01CB0112
:1021E0008F839887A987BA876F81788589859A8533
:1021F00020E030E040E85FE30E94250488232CF4CF
:1022000081E090E09E838D833FC06F8178858985D2
:102210009A8520E03FEF4FE757E40E94C503181668
:102220004CF56B857C858D859E8520E030E040E215
:1022300051E40E941F02DC01CB01BC01CD010E94D0
:102240004900DC01CB019E838D830FC088EC90E0B8
:102250009C838B838B819C810197F1F79C838B837B
:102260008D819E8101979E838D838D819E810097B4
:1022700069F714C06F81788589859A850E94490025
:10228000DC01CB019E838D838D819E819A8389831E
:1022900089819A810197F1F79A8389838A89882FA6
:1022A00090E0FC01EF54FE4F908181E0692F0E9485
:1022B000E409898B8989882329F58B89482F50E087
:1022C0008A89282F30E0CA01880F991F880F991F2B
:1022D000820F931FFC01E356FE4F80818F870CC055
:1022E0008A89882F90E0FC01EF54FE4F908181E0B5
:1022F000692F0E94E409898B8989882389F381E009
:10230000888B07C08A898F5F8A8B8A89843008F41A
:1023100043CF8B89882F90E0FC01E355FE4F9081DD
:1023200081E0692F41E00E94E0088889813039F01E
:102330008B898F5F8B8B8B89843008F41FCF8F85BF
:1023400063960FB6F894DEBF0FBECDBFCF91DF917D
:102350000895DF93CF93CDB7DEB761970FB6F894AA
:10236000DEBF0FBECDBF988B8F87698B0E9415078C
:102370008F859889892F992780650E943A078F85D4
:102380000E948C0789890E948C070E94250780E0A3
:1023900090E0A0E2B1E48B879C87AD87BE876B8518
:1023A0007C858D859E8520E030E04AEF54E40E94D4
:1023B0001F02DC01CB018F839887A987BA876F81C1
:1023C000788589859A8520E030E040E85FE30E94C7
:1023D000250488232CF481E090E09E838D833FC008
:1023E0006F81788589859A8520E03FEF4FE757E434
:1023F0000E94C50318164CF56B857C858D859E85DE
:1024000020E030E040E251E40E941F02DC01CB01F9
:10241000BC01CD010E944900DC01CB019E838D836C
:102420000FC088EC90E09C838B838B819C8101970B
:10243000F1F79C838B838D819E8101979E838D8391
:102440008D819E81009769F714C06F817885898599
:102450009A850E944900DC01CB019E838D838D818A
:102460009E819A83898389819A810197F1F79A8362
:10247000898361960FB6F894DEBF0FBECDBFCF91B2
:10248000DF910895DF93CF9300D00F92CDB7DEB7E1
:102490009B838A830E9415078A819B81892F9927B4
:1024A00080650E943A078A810E948C070E94150766
:1024B0008A819B81892F992780650E9463070E94EA
:1024C000A60789830E94250789810F900F900F909E
:1024D000CF91DF910895DF93CF9300D000D0CDB797
:1024E000DEB78C8319821B8214C08C81282F30E0C8
:1024F0008B81882F90E0820F931F0E9442128A8363
:102500008A818F3F19F081E0898306C08B818F5FBC
:102510008B838B81883048F389810F900F900F90C7
:102520000F90CF91DF910895DF93CF93CDB7DEB7B2
:10253000EA970FB6F894DEBF0FBECDBF80E690E0FD
:102540000E94A10E82E060E00E94CA0E8CE690E03C
:102550000E94A10E1AAE8FC00E94AF1089AF03C0B7
:102560000E94AF1089AF89AD8F3FD1F389AD8F3F06
:1025700009F47EC087E790E00E94A10E8AAD882F03
:1025800090E08C599F4F69AD0E94A91180E090E0C6
:10259000A8ECB2E48DAB9EABAFABB8AF6DA97EA992
:1025A0008FA998AD20E030E04AEF54E40E941F026A
:1025B000DC01CB0189AB9AABABABBCAB69A97AA907
:1025C0008BA99CA920E030E040E85FE30E9425044D
:1025D00088232CF481E090E098AB8FA73FC069A9D5
:1025E0007AA98BA99CA920E03FEF4FE757E40E940E
:1025F000C50318164CF56DA97EA98FA998AD20E0EA
:1026000030E040E251E40E941F02DC01CB01BC013A
:10261000CD010E944900DC01CB0198AB8FA70FC010
:1026200088EC90E09EA78DA78DA59EA50197F1F758
:102630009EA78DA78FA598A9019798AB8FA78FA567
:1026400098A9009769F714C069A97AA98BA99CA9D0
:102650000E944900DC01CB0198AB8FA78FA598A9F8
:102660009CA78BA78BA59CA50197F1F79CA78BA78F
:102670008AAD8F5F8AAF8AAD843008F46DCF81E078
:102680000E94650D80E090E0A0E0B0E48FA398A7E1
:10269000A9A7BAA76FA178A589A59AA520E030E0DF
:1026A0004AEF54E40E941F02DC01CB018BA39CA3E0
:1026B000ADA3BEA36BA17CA18DA19EA120E030E0C3
:1026C00040E85FE30E94250488232CF481E090E039
:1026D0009AA389A33FC06BA17CA18DA19EA120E0FC
:1026E0003FEF4FE757E40E94C50318164CF56FA162
:1026F00078A589A59AA520E030E040E251E40E9447
:102700001F02DC01CB01BC01CD010E944900DC01AC
:10271000CB019AA389A30FC088EC90E098A38F8F78
:102720008F8D98A10197F1F798A38F8F89A19AA116
:1027300001979AA389A389A19AA1009769F714C068
:102740006BA17CA18DA19EA10E944900DC01CB015F
:102750009AA389A389A19AA19E8F8D8F8D8D9E8D1D
:102760000197F1F79E8F8D8F89E790E00E94A10E6F
:1027700082E060E00E94CA0E8CE690E00E94A10E0A
:1027800084E08AAF8FC00E94AF1089AF03C00E945F
:10279000AF1089AF89AD8F3FD1F389AD8F3F09F479
:1027A0007EC087E790E00E94A10E8AAD882F90E05E
:1027B0008C599F4F69AD0E94A91180E090E0A8EC70
:1027C000B2E4898F9A8FAB8FBC8F698D7A8D8B8D98
:1027D0009C8D20E030E04AEF54E40E941F02DC01AF
:1027E000CB018D8B9E8BAF8BB88F6D897E898F8946
:1027F000988D20E030E040E85FE30E9425048823C4
:102800002CF481E090E09C8B8B8B3FC06D897E899E
:102810008F89988D20E03FEF4FE757E40E94C50372
:1028200018164CF5698D7A8D8B8D9C8D20E030E0EB
:1028300040E251E40E941F02DC01CB01BC01CD014A
:102840000E944900DC01CB019C8B8B8B0FC088EC74
:1028500090E09A8B898B89899A890197F1F79A8BF5
:10286000898B8B899C8901979C8B8B8B8B899C890D
:10287000009769F714C06D897E898F89988D0E94B1
:102880004900DC01CB019C8B8B8B8B899C89988BBD
:102890008F878F8598890197F1F7988B8F878AADFD
:1028A0008F5F8AAF8AAD883008F46DCF81E00E94D7
:1028B000650D80E090E0A0E0B0E48B879C87AD8759
:1028C000BE876B857C858D859E8520E030E04AEF54
:1028D00054E40E941F02DC01CB018F839887A987F3
:1028E000BA876F81788589859A8520E030E040E855
:1028F0005FE30E94250488232CF481E090E09E830E
:102900008D833FC06F81788589859A8520E03FEF70
:102910004FE757E40E94C50318164CF56B857C857C
:102920008D859E8520E030E040E251E40E941F0248
:10293000DC01CB01BC01CD010E944900DC01CB01CF
:102940009E838D830FC088EC90E09C838B838B816A
:102950009C810197F1F79C838B838D819E810197E8
:102960009E838D838D819E81009769F714C06F814E
:10297000788589859A850E944900DC01CB019E8378
:102980008D838D819E819A83898389819A81019724
:10299000F1F79A838983EA960FB6F894DEBF0FBEEB
:1029A000CDBFCF91DF9108950F931F93DF93CF9306
:1029B000CDB7DEB7C250D1400FB6F894DEBF0FBE20
:1029C000CDBFFE01E250FF4F10828091B6018330EF
:1029D00009F010C385E890E00E94A10EFE01E750C7
:1029E000FF4F80E090E0AAEFB3E480839183A2835D
:1029F000B3838E010B501F4FFE01E750FF4F6081E4
:102A000071818281938120E030E04AEF54E40E949A
:102A10001F02DC01CB01F80180839183A283B38381
:102A2000FE01EB50FF4F608171818281938120E034
:102A300030E040E85FE30E942504882344F4FE016F
:102A4000ED50FF4F81E090E09183808364C0FE01F0
:102A5000EB50FF4F608171818281938120E03FEFD5
:102A60004FE757E40E94C50318160CF043C0FE015F
:102A7000E750FF4F608171818281938120E030E0D7
:102A800040E251E40E941F02DC01CB018E010D5097
:102A90001F4FBC01CD010E944900DC01CB01F801B0
:102AA000918380831FC0FE01EF50FF4F88EC90E0C0
:102AB00091838083FE01EF50FF4F808191810197C8
:102AC000F1F7FE01EF50FF4F91838083DE01AD509F
:102AD000BF4FFE01ED50FF4F80819181019711960C
:102AE0009C938E93FE01ED50FF4F80819181009762
:102AF000D1F627C08E010D501F4FFE01EB50FF4F46
:102B000060817181828193810E944900DC01CB0147
:102B1000F80191838083DE01A151BF4FFE01ED508A
:102B2000FF4F808191818D939C93FE01E151FF4F76
:102B3000808191810197F1F7FE01E151FF4F91836F
:102B4000808381E00E94650DFE01E551FF4F80E02A
:102B500090E0A0E0B0E480839183A283B3838E01F0
:102B600009511F4FFE01E551FF4F60817181828144
:102B7000938120E030E04AEF54E40E941F02DC0120
:102B8000CB01F80180839183A283B383FE01E951D5
:102B9000FF4F608171818281938120E030E040E8C5
:102BA0005FE30E942504882344F4FE01EB51FF4FAC
:102BB00081E090E09183808364C0FE01E951FF4F82
:102BC000608171818281938120E03FEF4FE757E47C
:102BD0000E94C50318160CF043C0FE01E551FF4FDB
:102BE000608171818281938120E030E040E251E494
:102BF0000E941F02DC01CB018E010B511F4FBC0153
:102C0000CD010E944900DC01CB01F8019183808352
:102C10001FC0FE01ED51FF4F88EC90E0918380834F
:102C2000FE01ED51FF4F808191810197F1F7FE0187
:102C3000ED51FF4F91838083DE01AB51BF4FFE0109
:102C4000EB51FF4F80819181019711969C938E9358
:102C5000FE01EB51FF4F808191810097D1F628C092
:102C60008E010B511F4FFE01E951FF4F60817181B1
:102C7000828193810E944900DC01CB01F80191839C
:102C80008083DE01AF51BF4FFE01EB51FF4F8081CA
:102C9000918111969C938E93FE01EF51FF4F80819D
:102CA00091810197F1F7FE01EF51FF4F91838083EE
:102CB000FE01E050FF4F8AE080838AC183E990E003
:102CC0000E94A10E82E060E00E94CA0EFE01E05068
:102CD000FF4F8081882F90E0A0E0B0E0BC01CD01E3
:102CE0000E94F20E8FE990E00E94A10EFE01E352D5
:102CF000FF4F80E090E0A6E9B3E480839183A28354
:102D0000B3838E0107521F4FFE01E352FF4F6081D4
:102D100071818281938120E030E04AEF54E40E9487
:102D20001F02DC01CB01F80180839183A283B3836E
:102D3000FE01E752FF4F608171818281938120E023
:102D400030E040E85FE30E942504882344F4FE015C
:102D5000E952FF4F81E090E09183808364C0FE01DF
:102D6000E752FF4F608171818281938120E03FEFC4
:102D70004FE757E40E94C50318160CF043C0FE014C
:102D8000E352FF4F608171818281938120E030E0C6
:102D900040E251E40E941F02DC01CB018E01095286
:102DA0001F4FBC01CD010E944900DC01CB01F8019D
:102DB000918380831FC0FE01EB52FF4F88EC90E0AF
:102DC00091838083FE01EB52FF4F808191810197B7
:102DD000F1F7FE01EB52FF4F91838083DE01A95290
:102DE000BF4FFE01E952FF4F8081918101971196FB
:102DF0009C938E93FE01E952FF4F80819181009751
:102E0000D1F627C08E0109521F4FFE01E752FF4F36
:102E100060817181828193810E944900DC01CB0134
:102E2000F80191838083DE01AD52BF4FFE01E9526C
:102E3000FF4F808191818D939C93FE01ED52FF4F56
:102E4000808191810197F1F7FE01ED52FF4F91834F
:102E5000808381E00E94650DFE01E153FF4F80E019
:102E600090E0A0E0B0E480839183A283B3838E01DD
:102E700005531F4FFE01E153FF4F60817181828135
:102E8000938120E030E04AEF54E40E941F02DC010D
:102E9000CB01F80180839183A283B383FE01E553C4
:102EA000FF4F608171818281938120E030E040E8B2
:102EB0005FE30E942504882344F4FE01E753FF4F9B
:102EC00081E090E09183808364C0FE01E553FF4F71
:102ED000608171818281938120E03FEF4FE757E469
:102EE0000E94C50318160CF043C0FE01E153FF4FCA
:102EF000608171818281938120E030E040E251E481
:102F00000E941F02DC01CB018E0107531F4FBC0141
:102F1000CD010E944900DC01CB01F801918380833F
:102F20001FC0FE01E953FF4F88EC90E0918380833E
:102F3000FE01E953FF4F808191810197F1F7FE0176
:102F4000E953FF4F91838083DE01A753BF4FFE01FA
:102F5000E753FF4F80819181019711969C938E9347
:102F6000FE01E753FF4F808191810097D1F627C082
:102F70008E0107531F4FFE01E553FF4F60817181A2
:102F8000828193810E944900DC01CB01F801918389
:102F90008083DE01AB53BF4FFE01E753FF4F8081BB
:102FA00091818D939C93FE01EB53FF4F8081918122
:102FB0000197F1F7FE01EB53FF4F91838083DE0110
:102FC000A050BF4FFE01E050FF4F808181508C9395
:102FD000FE01E050FF4F8081882309F06FCE1092F0
:102FE000B6010E94D414CE5FDE4F8883C250D14018
:102FF0000C94E9218DEA90E00E94A10E82E060E04D
:103000000E94CA0E8FEB90E00E94A10E0E94AF10AA
:10301000FE01EF5FFE4F808306C00E94AF10FE01ED
:10302000EF5FFE4F8083FE01EF5FFE4F80818F3F99
:10303000A1F381E00E94650DFE01EF53FF4F80E098
:1030400090E0A0E0B0E480839183A283B3838E01FB
:1030500003541F4FFE01EF53FF4F60817181828146
:10306000938120E030E04AEF54E40E941F02DC012B
:10307000CB01F80180839183A283B383FE01E354E3
:10308000FF4F608171818281938120E030E040E8D0
:103090005FE30E942504882344F4FE01E554FF4FBA
:1030A00081E090E09183808364C0FE01E354FF4F90
:1030B000608171818281938120E03FEF4FE757E487
:1030C0000E94C50318160CF043C0FE01EF53FF4FDA
:1030D000608171818281938120E030E040E251E49F
:1030E0000E941F02DC01CB018E0105541F4FBC0161
:1030F000CD010E944900DC01CB01F801918380835E
:103100001FC0FE01E754FF4F88EC90E0918380835D
:10311000FE01E754FF4F808191810197F1F7FE0195
:10312000E754FF4F91838083DE01A554BF4FFE011A
:10313000E554FF4F80819181019711969C938E9366
:10314000FE01E554FF4F808191810097D1F628C0A0
:103150008E0105541F4FFE01E354FF4F60817181C2
:10316000828193810E944900DC01CB01F8019183A7
:103170008083DE01A954BF4FFE01E554FF4F8081DB
:10318000918111969C938E93FE01E954FF4F8081AB
:1031900091810197F1F7FE01E954FF4F91838083FC
:1031A000FE01EF5FFE4F8081813309F007C481E0AB
:1031B00063E00E94CA0E8FEC90E00E94A10E82E0B4
:1031C00060E00E94CA0E8CE690E00E94A10EFE0113
:1031D000E050FF4F1082AAC10E94AF10FE01E350E1
:1031E000FF4F808306C00E94AF10FE01E350FF4FE7
:1031F0008083FE01E350FF4F80818F3FA1F3FE01EA
:10320000E350FF4F80818F3F09F487C187E790E04B
:103210000E94A10EFE01ED54FF4F80E090E0A8E473
:10322000B3E480839183A283B3838E0101551F4F42
:10323000FE01ED54FF4F608171818281938120E016
:1032400030E04AEF54E40E941F02DC01CB01F80198
:1032500080839183A283B383FE01E155FF4F608198
:1032600071818281938120E030E040E85FE30E9439
:103270002504882344F4FE01E355FF4F81E090E0EC
:103280009183808364C0FE01E155FF4F60817181AD
:103290008281938120E03FEF4FE757E40E94C5030E
:1032A00018160CF043C0FE01ED54FF4F6081718190
:1032B0008281938120E030E040E251E40E941F02CD
:1032C000DC01CB018E0103551F4FBC01CD010E94D3
:1032D0004900DC01CB01F801918380831FC0FE010E
:1032E000E555FF4F88EC90E091838083FE01E55522
:1032F000FF4F808191810197F1F7FE01E555FF4F66
:1033000091838083DE01A355BF4FFE01E355FF4F3C
:1033100080819181019711969C938E93FE01E355D4
:10332000FF4F808191810097D1F627C08E01035510
:103330001F4FFE01E155FF4F6081718182819381B2
:103340000E944900DC01CB01F80191838083DE01FA
:10335000A755BF4FFE01E355FF4F808191818D93AB
:103360009C93FE01E755FF4F808191810197F1F712
:10337000FE01E755FF4F91838083FE01E050FF4F30
:103380008081882F90E08C599F4F0E944212FE014D
:10339000E150FF4F8083FE01EB55FF4F80E090E04E
:1033A000A8E4B3E480839183A283B3838E010F5595
:1033B0001F4FFE01EB55FF4F608171818281938128
:1033C00020E030E04AEF54E40E941F02DC01CB0110
:1033D000F80180839183A283B383FE01EF55FF4FF1
:1033E000608171818281938120E030E040E85FE379
:1033F0000E942504882344F4FE01E156FF4F81E03A
:1034000090E09183808364C0FE01EF55FF4F60819F
:1034100071818281938120E03FEF4FE757E40E9462
:10342000C50318160CF043C0FE01EB55FF4F608139
:1034300071818281938120E030E040E251E40E947A
:103440001F02DC01CB018E0101561F4FBC01CD01D3
:103450000E944900DC01CB01F801918380831FC0E9
:10346000FE01E356FF4F88EC90E091838083FE01DC
:10347000E356FF4F808191810197F1F7FE01E356FA
:10348000FF4F91838083DE01A156BF4FFE01E156BD
:10349000FF4F80819181019711969C938E93FE013D
:1034A000E156FF4F808191810097D1F627C08E01B0
:1034B00001561F4FFE01EF55FF4F608171818281E0
:1034C00093810E944900DC01CB01F8019183808344
:1034D000DE01A556BF4FFE01E156FF4F808191816D
:1034E0008D939C93FE01E556FF4F8081918101975A
:1034F000F1F7FE01E556FF4F91838083FE01E15015
:10350000FF4FDE01A350BF4F90818C91981729F097
:10351000FE01E250FF4F81E08083DE01A050BF4FEB
:10352000FE01E050FF4F80818F5F8C93FE01E050E1
:10353000FF4F8081843008F44FCE81E00E94650DFA
:10354000FE01E956FF4F80E090E0A0E0B0E4808308
:103550009183A283B3838E010D561F4FFE01E9565E
:10356000FF4F608171818281938120E030E04AEFDA
:1035700054E40E941F02DC01CB01F8018083918397
:10358000A283B383FE01ED56FF4F6081718182817A
:10359000938120E030E040E85FE30E942504882327
:1035A00044F4FE01EF56FF4F81E090E09183808369
:1035B00064C0FE01ED56FF4F60817181828193816D
:1035C00020E03FEF4FE757E40E94C50318160CF0C8
:1035D00043C0FE01E956FF4F608171818281938172
:1035E00020E030E040E251E40E941F02DC01CB0108
:1035F0008E010F561F4FBC01CD010E944900DC0116
:10360000CB01F801918380831FC0FE01E157FF4F7A
:1036100088EC90E091838083FE01E157FF4F808129
:1036200091810197F1F7FE01E157FF4F918380836C
:10363000DE01AF56BF4FFE01EF56FF4F80819181F3
:10364000019711969C938E93FE01EF56FF4F808158
:1036500091810097D1F628C08E010F561F4FFE01B1
:10366000ED56FF4F60817181828193810E944900F4
:10367000DC01CB01F80191838083DE01A357BF4FAA
:10368000FE01EF56FF4F8081918111969C938E939E
:10369000FE01E357FF4F808191810197F1F7FE0111
:1036A000E357FF4F91838083FE01E250FF4F8081FB
:1036B000882309F47AC18AED90E00E94A10EFE01F0
:1036C000E757FF4F80E090E0A6E9B3E48083918361
:1036D000A283B3838E010B571F4FFE01E757FF4FA5
:1036E000608171818281938120E030E04AEF54E46F
:1036F0000E941F02DC01CB01F80180839183A28329
:10370000B383FE01EB57FF4F60817181828193810A
:1037100020E030E040E85FE30E942504882344F481
:10372000FE01ED57FF4F81E090E09183808364C0FC
:10373000FE01EB57FF4F608171818281938120E010
:103740003FEF4FE757E40E94C50318160CF043C043
:10375000FE01E757FF4F608171818281938120E0F4
:1037600030E040E251E40E941F02DC01CB018E01F7
:103770000D571F4FBC01CD010E944900DC01CB0158
:10378000F801918380831FC0FE01EF57FF4F88EC43
:1037900090E091838083FE01EF57FF4F80819181FC
:1037A0000197F1F7FE01EF57FF4F91838083DE0110
:1037B000AD57BF4FFE01ED57FF4F808191810197BB
:1037C00011969C938E93FE01ED57FF4F808191815E
:1037D0000097D1F627C08E010D571F4FFE01EB5702
:1037E000FF4F60817181828193810E944900DC01D9
:1037F000CB01F80191838083DE01A158BF4FFE0108
:10380000ED57FF4F808191818D939C93FE01E1588C
:10381000FF4F808191810197F1F7FE01E158FF4F41
:103820009183808381E00E94650DFE01E558FF4F82
:1038300080E090E0A0E0B0E480839183A283B38332
:103840008E0109581F4FFE01E558FF4F60817181BD
:103850008281938120E030E04AEF54E40E941F020D
:10386000DC01CB01F80180839183A283B383FE0145
:10387000E958FF4F608171818281938120E030E0BF
:1038800040E85FE30E942504882344F4FE01EB58DE
:10389000FF4F81E090E09183808364C0FE01E9588E
:1038A000FF4F608171818281938120E03FEF4FE77C
:1038B00057E40E94C50318160CF043C0FE01E558FA
:1038C000FF4F608171818281938120E030E040E28E
:1038D00051E40E941F02DC01CB018E010B581F4FE7
:1038E000BC01CD010E944900DC01CB01F8019183AC
:1038F00080831FC0FE01ED58FF4F88EC90E091835C
:103900008083FE01ED58FF4F808191810197F1F78F
:10391000FE01ED58FF4F91838083DE01AB58BF4F0E
:10392000FE01EB58FF4F80819181019711969C9386
:103930008E93FE01EB58FF4F808191810097D1F665
:1039400027C08E010B581F4FFE01E958FF4F6081C1
:103950007181828193810E944900DC01CB01F801D1
:1039600091838083DE01AF58BF4FFE01EB58FF4FBC
:10397000808191818D939C93FE01EF58FF4F808150
:1039800091810197F1F7FE01EF58FF4F91838083FA
:103990008091B6018F5F8093B6010E94D414CE5FF0
:1039A000DE4F8883C250D14014C51092B601F1E0B9
:1039B000CE5FDE4FF883C250D1400BC5FE01EF5FF2
:1039C000FE4F8081823309F099C381E063E00E9459
:1039D000CA0E8AEE90E00E94A10E82E060E00E9492
:1039E000CA0E8CE690E00E94A10EFE01E050FF4F4F
:1039F00084E08083AAC10E94AF10FE01E350FF4F14
:103A0000808306C00E94AF10FE01E350FF4F808309
:103A1000FE01E350FF4F80818F3FA1F3FE01E35091
:103A2000FF4F80818F3F09F487C187E790E00E94B4
:103A3000A10EFE01E359FF4F80E090E0A8E4B3E45B
:103A400080839183A283B3838E0107591F4FFE01A8
:103A5000E359FF4F608171818281938120E030E0E2
:103A60004AEF54E40E941F02DC01CB01F80180837D
:103A70009183A283B383FE01E759FF4F6081718177
:103A80008281938120E030E040E85FE30E942504DA
:103A9000882344F4FE01E959FF4F81E090E09183CF
:103AA000808364C0FE01E759FF4F6081718182818C
:103AB000938120E03FEF4FE757E40E94C5031816BB
:103AC0000CF043C0FE01E359FF4F60817181828198
:103AD000938120E030E040E251E40E941F02DC01CB
:103AE000CB018E0109591F4FBC01CD010E94490035
:103AF000DC01CB01F801918380831FC0FE01EB59EB
:103B0000FF4F88EC90E091838083FE01EB59FF4FDB
:103B1000808191810197F1F7FE01EB59FF4F91836D
:103B20008083DE01A959BF4FFE01E959FF4F808113
:103B30009181019711969C938E93FE01E959FF4F55
:103B4000808191810097D1F627C08E0109591F4FBE
:103B5000FE01E759FF4F60817181828193810E944C
:103B60004900DC01CB01F80191838083DE01AD596E
:103B7000BF4FFE01E959FF4F808191818D939C9346
:103B8000FE01ED59FF4F808191810197F1F7FE0110
:103B9000ED59FF4F91838083FE01E050FF4F8081FC
:103BA000882F90E08C599F4F0E944212FE01E150F5
:103BB000FF4F8083FE01E15AFF4F80E090E0A8E4D0
:103BC000B3E480839183A283B3838E01055A1F4F90
:103BD000FE01E15AFF4F608171818281938120E073
:103BE00030E04AEF54E40E941F02DC01CB01F801EF
:103BF00080839183A283B383FE01E55AFF4F6081E6
:103C000071818281938120E030E040E85FE30E948F
:103C10002504882344F4FE01E75AFF4F81E090E039
:103C20009183808364C0FE01E55AFF4F60817181FA
:103C30008281938120E03FEF4FE757E40E94C50364
:103C400018160CF043C0FE01E15AFF4F60817181EC
:103C50008281938120E030E040E251E40E941F0223
:103C6000DC01CB018E01075A1F4FBC01CD010E9420
:103C70004900DC01CB01F801918380831FC0FE0164
:103C8000E95AFF4F88EC90E091838083FE01E95A66
:103C9000FF4F808191810197F1F7FE01E95AFF4FB3
:103CA00091838083DE01A75ABF4FFE01E75AFF4F81
:103CB00080819181019711969C938E93FE01E75A22
:103CC000FF4F808191810097D1F627C08E01075A5E
:103CD0001F4FFE01E55AFF4F608171818281938100
:103CE0000E944900DC01CB01F80191838083DE0151
:103CF000AB5ABF4FFE01E75AFF4F808191818D93F0
:103D00009C93FE01EB5AFF4F808191810197F1F75F
:103D1000FE01EB5AFF4F91838083FE01E150FF4F7C
:103D2000DE01A350BF4F90818C91981729F0FE01BE
:103D3000E250FF4F81E08083DE01A050BF4FFE01C3
:103D4000E050FF4F80818F5F8C93FE01E050FF4F6A
:103D50008081883008F44FCE81E00E94650DFE011D
:103D6000EF5AFF4F80E090E0A0E0B0E480839183C1
:103D7000A283B3838E01035B1F4FFE01EF5AFF4FF7
:103D8000608171818281938120E030E04AEF54E4C8
:103D90000E941F02DC01CB01F80180839183A28382
:103DA000B383FE01E35BFF4F608171818281938168
:103DB00020E030E040E85FE30E942504882344F4DB
:103DC000FE01E55BFF4F81E090E09183808364C05A
:103DD000FE01E35BFF4F608171818281938120E06E
:103DE0003FEF4FE757E40E94C50318160CF043C09D
:103DF000FE01EF5AFF4F608171818281938120E043
:103E000030E040E251E40E941F02DC01CB018E0150
:103E1000055B1F4FBC01CD010E944900DC01CB01B5
:103E2000F801918380831FC0FE01E75BFF4F88ECA0
:103E300090E091838083FE01E75BFF4F8081918159
:103E40000197F1F7FE01E75BFF4F91838083DE016D
:103E5000A55BBF4FFE01E55BFF4F8081918101971C
:103E600011969C938E93FE01E55BFF4F80819181BB
:103E70000097D1F628C08E01055B1F4FFE01E35B62
:103E8000FF4F60817181828193810E944900DC0132
:103E9000CB01F80191838083DE01A95BBF4FFE0156
:103EA000E55BFF4F8081918111969C938E93FE017B
:103EB000E95BFF4F808191810197F1F7FE01E95B9A
:103EC000FF4F91838083FE01E250FF4F8081882362
:103ED00009F40BC18AED90E00E94A10EFE01ED5B9A
:103EE000FF4F80E090E0A6E9B3E480839183A28352
:103EF000B3838E01015C1F4FFE01ED5BFF4F6081BC
:103F000071818281938120E030E04AEF54E40E9485
:103F10001F02DC01CB01F80180839183A283B3836C
:103F2000FE01FF96608171818281938120E030E003
:103F300040E85FE30E94250488232CF481E090E0B0
:103F40009EAF8DAF46C0FE01FF9660817181828178
:103F5000938120E03FEF4FE757E40E94C503181616
:103F600064F5FE01ED5BFF4F608171818281938179
:103F700020E030E040E251E40E941F02DC01CB016E
:103F8000BC01CD010E944900DC01CB019EAF8DAF89
:103F90000FC088EC90E09CAF8BAF8BAD9CAD0197D0
:103FA000F1F79CAF8BAF8DAD9EAD01979EAF8DAFFE
:103FB0008DAD9EAD009769F716C0FE01FF9660813A
:103FC0007181828193810E944900DC01CB019EAF07
:103FD0008DAF8DAD9EAD9AAF89AF89AD9AAD01978A
:103FE000F1F79AAF89AF81E00E94650D80E090E023
:103FF000A0E0B0E48DAB9EABAFABB8AF6DA97EA92E
:104000008FA998AD20E030E04AEF54E40E941F02EF
:10401000DC01CB0189AB9AABABABBCAB69A97AA98C
:104020008BA99CA920E030E040E85FE30E942504D2
:1040300088232CF481E090E098AB8FA73FC069A95A
:104040007AA98BA99CA920E03FEF4FE757E40E9493
:10405000C50318164CF56DA97EA98FA998AD20E06F
:1040600030E040E251E40E941F02DC01CB01BC01C0
:10407000CD010E944900DC01CB0198AB8FA70FC096
:1040800088EC90E09EA78DA78DA59EA50197F1F7DE
:104090009EA78DA78FA598A9019798AB8FA78FA5ED
:1040A00098A9009769F714C069A97AA98BA99CA956
:1040B0000E944900DC01CB0198AB8FA78FA598A97E
:1040C0009CA78BA78BA59CA50197F1F79CA78BA715
:1040D0008091B6018F5F8093B6010E94D414CE5FA9
:1040E000DE4F8883C250D14074C11092B601F2E015
:1040F000CE5FDE4FF883C250D1406BC181E00E9499
:10410000650D80E090E0A0E0B0E48FA398A7A9A798
:10411000BAA76FA178A589A59AA520E030E04AEF5B
:1041200054E40E941F02DC01CB018BA39CA3ADA32E
:10413000BEA36BA17CA18DA19EA120E030E040E850
:104140005FE30E94250488232CF481E090E09AA389
:1041500089A33FC06BA17CA18DA19EA120E03FEF70
:104160004FE757E40E94C50318164CF56FA178A5D8
:1041700089A59AA520E030E040E251E40E941F02A8
:10418000DC01CB01BC01CD010E944900DC01CB0167
:104190009AA389A30FC088EC90E098A38F8F8F8D8E
:1041A00098A10197F1F798A38F8F89A19AA1019700
:1041B0009AA389A389A19AA1009769F714C06BA15A
:1041C0007CA18DA19EA10E944900DC01CB019AA394
:1041D00089A389A19AA19E8F8D8F8D8D9E8D019728
:1041E000F1F79E8F8D8F81E063E00E94CA0E85EF0C
:1041F00090E00E94A10E80E090E0A6E9B3E4898FF0
:104200009A8FAB8FBC8F698D7A8D8B8D9C8D20E0C2
:1042100030E04AEF54E40E941F02DC01CB018D8B99
:104220009E8BAF8BB88F6D897E898F89988D20E0AA
:1042300030E040E85FE30E94250488232CF481E00D
:1042400090E09C8B8B8B3FC06D897E898F89988D88
:1042500020E03FEF4FE757E40E94C50318164CF5E6
:10426000698D7A8D8B8D9C8D20E030E040E251E4A9
:104270000E941F02DC01CB01BC01CD010E9449005C
:10428000DC01CB019C8B8B8B0FC088EC90E09A8B70
:10429000898B89899A890197F1F79A8B898B8B8908
:1042A0009C8901979C8B8B8B8B899C89009769F7E4
:1042B00014C06D897E898F89988D0E944900DC0128
:1042C000CB019C8B8B8B8B899C89988B8F878F855F
:1042D00098890197F1F7988B8F8781E00E94650D8F
:1042E00080E090E0A0E0B0E48B879C87AD87BE873C
:1042F0006B857C858D859E8520E030E04AEF54E417
:104300000E941F02DC01CB018F839887A987BA879F
:104310006F81788589859A8520E030E040E85FE309
:104320000E94250488232CF481E090E09E838D83F5
:104330003FC06F81788589859A8520E03FEF4FE700
:1043400057E40E94C50318164CF56B857C858D8556
:104350009E8520E030E040E251E40E941F02DC0133
:10436000CB01BC01CD010E944900DC01CB019E8341
:104370008D830FC088EC90E09C838B838B819C8124
:104380000197F1F79C838B838D819E8101979E839A
:104390008D838D819E81009769F714C06F81788528
:1043A00089859A850E944900DC01CB019E838D831B
:1043B0008D819E819A83898389819A810197F1F702
:1043C0009A8389830E94D414CE5FDE4F8883C250C3
:1043D000D140CE5FDE4F8881C250D140CE5FDE4FEC
:1043E0000FB6F894DEBF0FBECDBFCF91DF911F9106
:1043F0000F910895DF93CF93CDB7DEB7AB970FB68C
:10440000F894DEBF0FBECDBF81E091E00E94A10E07
:1044100080E090E0AAE7B4E48FA398A7A9A7BAA781
:104420006FA178A589A59AA520E030E04AEF54E471
:104430000E941F02DC01CB018BA39CA3ADA3BEA3F2
:104440006BA17CA18DA19EA120E030E040E85FE35C
:104450000E94250488232CF481E090E09AA389A38C
:104460003FC06BA17CA18DA19EA120E03FEF4FE753
:1044700057E40E94C50318164CF56FA178A589A5CD
:104480009AA520E030E040E251E40E941F02DC01E6
:10449000CB01BC01CD010E944900DC01CB019AA3F4
:1044A00089A30FC088EC90E098A38F8F8F8D98A17F
:1044B0000197F1F798A38F8F89A19AA101979AA3E9
:1044C00089A389A19AA1009769F714C06BA17CA167
:1044D0008DA19EA10E944900DC01CB019AA389A372
:1044E00089A19AA19E8F8D8F8D8D9E8D0197F1F759
:1044F0009E8F8D8F81E00E94650D80E090E0A0E0AE
:10450000B0E4898F9A8FAB8FBC8F698D7A8D8B8D3C
:104510009C8D20E030E04AEF54E40E941F02DC0151
:10452000CB018D8B9E8BAF8BB88F6D897E898F89E8
:10453000988D20E030E040E85FE30E942504882366
:104540002CF481E090E09C8B8B8B3FC06D897E8941
:104550008F89988D20E03FEF4FE757E40E94C50315
:1045600018164CF5698D7A8D8B8D9C8D20E030E08E
:1045700040E251E40E941F02DC01CB01BC01CD01ED
:104580000E944900DC01CB019C8B8B8B0FC088EC17
:1045900090E09A8B898B89899A890197F1F79A8B98
:1045A000898B8B899C8901979C8B8B8B8B899C89B0
:1045B000009769F714C06D897E898F89988D0E9454
:1045C0004900DC01CB019C8B8B8B8B899C89988B60
:1045D0008F878F8598890197F1F7988B8F8781E076
:1045E00060E00E94CA0E8EE091E00E94A10E81E080
:1045F00068E00E94CA0E86E191E00E94A10E82E06E
:1046000060E00E94CA0E8EE191E00E94A10E82E05D
:1046100068E00E94CA0E86E291E00E94A10E0E940C
:10462000AF108BA703C00E94AF108BA78BA58F3F45
:10463000D1F381E00E94650D80E090E0A0E0B0E45D
:104640008B879C87AD87BE876B857C858D859E8596
:1046500020E030E04AEF54E40E941F02DC01CB016D
:104660008F839887A987BA876F81788589859A858E
:1046700020E030E040E85FE30E94250488232CF42A
:1046800081E090E09E838D833FC06F81788589852E
:104690009A8520E03FEF4FE757E40E94C5031816C4
:1046A0004CF56B857C858D859E8520E030E040E271
:1046B00051E40E941F02DC01CB01BC01CD010E942C
:1046C0004900DC01CB019E838D830FC088EC90E014
:1046D0009C838B838B819C810197F1F79C838B83D7
:1046E0008D819E8101979E838D838D819E81009710
:1046F00069F714C06F81788589859A850E94490081
:10470000DC01CB019E838D838D819E819A83898379
:1047100089819A810197F1F79A8389838BA5AB965A
:104720000FB6F894DEBF0FBECDBFCF91DF910895D5
:10473000DF93CF93CDB7DEB7AB970FB6F894DEBF5C
:104740000FBECDBF81E060E00E94CA0E8BE291E017
:104750000E94A10E82E064E00E94CA0E8AE391E00A
:104760000E94A10E80E090E0AAE7B4E48FA398A78E
:10477000A9A7BAA76FA178A589A59AA520E030E0DE
:104780004AEF54E40E941F02DC01CB018BA39CA3DF
:10479000ADA3BEA36BA17CA18DA19EA120E030E0C2
:1047A00040E85FE30E94250488232CF481E090E038
:1047B0009AA389A33FC06BA17CA18DA19EA120E0FB
:1047C0003FEF4FE757E40E94C50318164CF56FA161
:1047D00078A589A59AA520E030E040E251E40E9446
:1047E0001F02DC01CB01BC01CD010E944900DC01AC
:1047F000CB019AA389A30FC088EC90E098A38F8F78
:104800008F8D98A10197F1F798A38F8F89A19AA115
:1048100001979AA389A389A19AA1009769F714C067
:104820006BA17CA18DA19EA10E944900DC01CB015E
:104830009AA389A389A19AA19E8F8D8F8D8D9E8D1C
:104840000197F1F79E8F8D8F81E00E94650D80E0CA
:1048500090E0A0E0B0E4898F9A8FAB8FBC8F698D18
:104860007A8D8B8D9C8D20E030E04AEF54E40E94DD
:104870001F02DC01CB018D8B9E8BAF8BB88F6D89B6
:104880007E898F89988D20E030E040E85FE30E94C8
:10489000250488232CF481E090E09C8B8B8B3FC017
:1048A0006D897E898F89988D20E03FEF4FE757E42F
:1048B0000E94C50318164CF5698D7A8D8B8D9C8DE1
:1048C00020E030E040E251E40E941F02DC01CB0115
:1048D000BC01CD010E944900DC01CB019C8B8B8B7C
:1048E0000FC088EC90E09A8B898B89899A8901970F
:1048F000F1F79A8B898B8B899C8901979C8B8B8B89
:104900008B899C89009769F714C06D897E898F898E
:10491000988D0E944900DC01CB019C8B8B8B8B898D
:104920009C89988B8F878F8598890197F1F7988B51
:104930008F8781E060E00E94CA0E8EE091E00E94C5
:10494000A10E81E068E00E94CA0E86E191E00E941B
:10495000A10E82E060E00E94CA0E8EE191E00E940A
:10496000A10E0E94AF108BA703C00E94AF108BA7AF
:104970008BA58F3FD1F381E00E94650D80E090E030
:10498000A0E0B0E48B879C87AD87BE876B857C8574
:104990008D859E8520E030E04AEF54E40E941F029E
:1049A000DC01CB018F839887A987BA876F817885CF
:1049B00089859A8520E030E040E85FE30E94250485
:1049C00088232CF481E090E09E838D833FC06F812B
:1049D000788589859A8520E03FEF4FE757E40E946C
:1049E000C50318164CF56B857C858D859E8520E06A
:1049F00030E040E251E40E941F02DC01CB01BC0127
:104A0000CD010E944900DC01CB019E838D830FC044
:104A100088EC90E09C838B838B819C810197F1F7DC
:104A20009C838B838D819E8101979E838D838D8155
:104A30009E81009769F714C06F81788589859A8572
:104A40000E944900DC01CB019E838D838D819E8174
:104A50009A83898389819A810197F1F79A8389835F
:104A60008BA5AB960FB6F894DEBF0FBECDBFCF912E
:104A7000DF910895DF93CF93CDB7DEB7E1970FB6FF
:104A8000F894DEBF0FBECDBF8EA76FA71DA68EA563
:104A9000282F30E039AB28AB88A999A9823391053A
:104AA000D9F128A939A92333310534F488A999A962
:104AB0008133910571F0CFC128A939A9233331057C
:104AC00009F44DC088A999A98433910509F46AC0F5
:104AD000C2C181E060E00E94CA0E80E491E00E94C1
:104AE000A10E82E060E00E94CA0E87E491E00E947D
:104AF000A10E82E067E00E94CA0E8DE491E00E9460
:104B0000A10E0E94AF108DA703C00E94AF108DA709
:104B10008DA58F3FD1F39FC181E060E00E94CA0E56
:104B200084E591E00E94A10E82E060E00E94CA0E3E
:104B300087E491E00E94A10E82E067E00E94CA0E25
:104B40008DE491E00E94A10E0E94AF108DA703C0DA
:104B50000E94AF108DA78DA58F3FD1F37CC181E05E
:104B600060E00E94CA0E8BE591E00E94A10E82E0F7
:104B700060E00E94CA0E87E491E00E94A10E82E0EC
:104B800067E00E94CA0E8DE491E00E94A10E0E948F
:104B9000AF108DA703C00E94AF108DA78DA58F3FCA
:104BA000D1F359C18FA5813009F055C181E060E092
:104BB0000E94CA0E82E691E00E94A10E82E060E0AF
:104BC0000E94CA0E87E491E00E94A10E82E067E095
:104BD0000E94CA0E8DE491E00E94A10E0E94AF10C7
:104BE0008CA703C00E94AF108CA78CA58F3FD1F378
:104BF00081E00E94650D80E090E0A0E0B0E48FA32A
:104C000098A7A9A7BAA76FA178A589A59AA520E01A
:104C100030E04AEF54E40E941F02DC01CB018BA379
:104C20009CA3ADA3BEA36BA17CA18DA19EA120E0FE
:104C300030E040E85FE30E94250488232CF481E003
:104C400090E09AA389A33FC06BA17CA18DA19EA1F6
:104C500020E03FEF4FE757E40E94C50318164CF5DC
:104C60006FA178A589A59AA520E030E040E251E443
:104C70000E941F02DC01CB01BC01CD010E94490052
:104C8000DC01CB019AA389A30FC088EC90E098A324
:104C90008F8F8F8D98A10197F1F798A38F8F89A19E
:104CA0009AA101979AA389A389A19AA1009769F76C
:104CB00014C06BA17CA18DA19EA10E944900DC01C2
:104CC000CB019AA389A389A19AA19E8F8D8F8D8DE7
:104CD0009E8D0197F1F79E8F8D8F8CA5853309F0FE
:104CE000B5C081E060E00E94CA0E85E691E00E94B6
:104CF000A10E82E062E00E94CA0E86E791E00E9467
:104D0000A10E82E060E00E94CA0E0E94AF108BA745
:104D100003C00E94AF108BA78BA58F3FD1F38BA54B
:104D20000E94030E8BA5882F90E09C01220F331F59
:104D3000C901880F991F880F991F820F931F805EEA
:104D40008DA70E94AF108BA703C00E94AF108BA746
:104D50008BA58F3FD1F38BA50E94030E9BA58DA53C
:104D6000890F80538DA780E090E0AAEFB3E4898F8C
:104D70009A8FAB8FBC8F698D7A8D8B8D9C8D20E047
:104D800030E04AEF54E40E941F02DC01CB018D8B1E
:104D90009E8BAF8BB88F6D897E898F89988D20E02F
:104DA00030E040E85FE30E94250488232CF481E092
:104DB00090E09C8B8B8B3FC06D897E898F89988D0D
:104DC00020E03FEF4FE757E40E94C50318164CF56B
:104DD000698D7A8D8B8D9C8D20E030E040E251E42E
:104DE0000E941F02DC01CB01BC01CD010E944900E1
:104DF000DC01CB019C8B8B8B0FC088EC90E09A8BF5
:104E0000898B89899A890197F1F79A8B898B8B898C
:104E10009C8901979C8B8B8B8B899C89009769F768
:104E20001AC06D897E898F89988D0E944900DC01A6
:104E3000CB019C8B8B8B8B899C89988B8F878F85E3
:104E400098890197F1F7988B8F8705C08CA58633D9
:104E500011F48FEF8DA781E00E94650D80E090E056
:104E6000A0E0B0E48B879C87AD87BE876B857C858F
:104E70008D859E8520E030E04AEF54E40E941F02B9
:104E8000DC01CB018F839887A987BA876F817885EA
:104E900089859A8520E030E040E85FE30E942504A0
:104EA00088232CF481E090E09E838D833FC06F8146
:104EB000788589859A8520E03FEF4FE757E40E9487
:104EC000C50318164CF56B857C858D859E8520E085
:104ED00030E040E251E40E941F02DC01CB01BC0142
:104EE000CD010E944900DC01CB019E838D830FC060
:104EF00088EC90E09C838B838B819C810197F1F7F8
:104F00009C838B838D819E8101979E838D838D8170
:104F10009E81009769F714C06F81788589859A858D
:104F20000E944900DC01CB019E838D838D819E818F
:104F30009A83898389819A810197F1F79A8389837A
:104F40008DA5E1960FB6F894DEBF0FBECDBFCF9111
:104F5000DF910895DF93CF93CDB7DEB76E970FB68D
:104F6000F894DEBF0FBECDBF1E8E1D8E81E060E0C7
:104F70000E94CA0E88E791E00E94A10E82E060E0E4
:104F80000E94CA0E88E891E00E94A10E0E94AF1014
:104F90008E8F03C00E94AF108E8F8E8D8F3FD1F306
:104FA00081E00E94650D80E090E0A0E0B0E4898F90
:104FB0009A8FAB8FBC8F698D7A8D8B8D9C8D20E005
:104FC00030E04AEF54E40E941F02DC01CB018D8BDC
:104FD0009E8BAF8BB88F6D897E898F89988D20E0ED
:104FE00030E040E85FE30E94250488232CF481E050
:104FF00090E09C8B8B8B3FC06D897E898F89988DCB
:1050000020E03FEF4FE757E40E94C50318164CF528
:10501000698D7A8D8B8D9C8D20E030E040E251E4EB
:105020000E941F02DC01CB01BC01CD010E9449009E
:10503000DC01CB019C8B8B8B0FC088EC90E09A8BB2
:10504000898B89899A890197F1F79A8B898B8B894A
:105050009C8901979C8B8B8B8B899C89009769F726
:1050600014C06D897E898F89988D0E944900DC016A
:10507000CB019C8B8B8B8B899C89988B8F878F85A1
:1050800098890197F1F7988B8F878E8D813319F46A
:1050900081E08D8F04C08E8D823309F41D8E81E0F6
:1050A0000E94650D80E090E0A0E0B0E48B879C87D3
:1050B000AD87BE876B857C858D859E8520E030E041
:1050C0004AEF54E40E941F02DC01CB018F839887D2
:1050D000A987BA876F81788589859A8520E030E035
:1050E00040E85FE30E94250488232CF481E090E0EF
:1050F0009E838D833FC06F81788589859A8520E066
:105100003FEF4FE757E40E94C50318164CF56B8537
:105110007C858D859E8520E030E040E251E40E9450
:105120001F02DC01CB01BC01CD010E944900DC0162
:10513000CB019E838D830FC088EC90E09C838B8392
:105140008B819C810197F1F79C838B838D819E815C
:1051500001979E838D838D819E81009769F714C08E
:105160006F81788589859A850E944900DC01CB0191
:105170009E838D838D819E819A83898389819A8183
:105180000197F1F79A8389838D8D6E960FB6F89407
:10519000DEBF0FBECDBFCF91DF910895DF93CF93D8
:1051A0000F92CDB7DEB719820E94AF108983898133
:1051B0008823D1F389810F90CF91DF910895DF93F8
:1051C000CF9300D0CDB7DEB789836A838A81882FD9
:1051D00090E0009719F489810E94A8060F900F9023
:1051E000CF91DF910895DF93CF930F92CDB7DEB7C4
:1051F00019820E94C206898389818823D1F389811B
:105200000F90CF91DF910895DF93CF93CDB7DEB7A5
:10521000EC970FB6F894DEBF0FBECDBF1CAE1AAE32
:1052200019AE0E946E0B0E947D100E944F060E94D4
:10523000D10680E090E0AAE7B4E48DAB9EABAFABC3
:10524000B8AF6DA97EA98FA998AD20E030E04AEFF4
:1052500054E40E941F02DC01CB0189AB9AABABABDB
:10526000BCAB69A97AA98BA99CA920E030E040E8F1
:105270005FE30E94250488232CF481E090E098AB42
:105280008FA73FC069A97AA98BA99CA920E03FEF0D
:105290004FE757E40E94C50318164CF56DA97EA987
:1052A0008FA998AD20E030E040E251E40E941F0257
:1052B000DC01CB01BC01CD010E944900DC01CB0126
:1052C00098AB8FA70FC088EC90E09EA78DA78DA507
:1052D0009EA50197F1F79EA78DA78FA598A9019785
:1052E00098AB8FA78FA598A9009769F714C069A9F3
:1052F0007AA98BA99CA90E944900DC01CB0198AB3B
:105300008FA78FA598A99CA78BA78BA59CA5019774
:10531000F1F79CA78BA783E060E040E00E94DC07E8
:1053200083E061E041E00E94DC0781E066E00E94EA
:10533000CA0E82E991E00E94A10E80E090E0AAE707
:10534000B4E48FA398A7A9A7BAA76FA178A589A548
:105350009AA520E030E04AEF54E40E941F02DC01ED
:10536000CB018BA39CA3ADA3BEA36BA17CA18DA1FC
:105370009EA120E030E040E85FE30E9425048823FE
:105380002CF481E090E09AA389A33FC06BA17CA19B
:105390008DA19EA120E03FEF4FE757E40E94C50397
:1053A00018164CF56FA178A589A59AA520E030E0E4
:1053B00040E251E40E941F02DC01CB01BC01CD019F
:1053C0000E944900DC01CB019AA389A30FC088EC9D
:1053D00090E098A38F8F8F8D98A10197F1F798A3F4
:1053E0008F8F89A19AA101979AA389A389A19AA1D4
:1053F000009769F714C06BA17CA18DA19EA10E94AA
:105400004900DC01CB019AA389A389A19AA19E8FAF
:105410008D8F8D8D9E8D0197F1F79E8F8D8F84E6F8
:1054200090E00E946B128CAF81E00E94650D80E0DD
:1054300090E0A0E0B0E4898F9A8FAB8FBC8F698D2C
:105440007A8D8B8D9C8D20E030E04AEF54E40E94F1
:105450001F02DC01CB018D8B9E8BAF8BB88F6D89CA
:105460007E898F89988D20E030E040E85FE30E94DC
:10547000250488232CF481E090E09C8B8B8B3FC02B
:105480006D897E898F89988D20E03FEF4FE757E443
:105490000E94C50318164CF5698D7A8D8B8D9C8DF5
:1054A00020E030E040E251E40E941F02DC01CB0129
:1054B000BC01CD010E944900DC01CB019C8B8B8B90
:1054C0000FC088EC90E09A8B898B89899A89019723
:1054D000F1F79A8B898B8B899C8901979C8B8B8B9D
:1054E0008B899C89009769F714C06D897E898F89A3
:1054F000988D0E944900DC01CB019C8B8B8B8B89A2
:105500009C89988B8F878F8598890197F1F7988B65
:105510008F878CAD882309F077C00E94941281E0B8
:105520000E94650D80E090E0A0E0B0E48B879C874E
:10553000AD87BE876B857C858D859E8520E030E0BC
:105540004AEF54E40E941F02DC01CB018F8398874D
:10555000A987BA876F81788589859A8520E030E0B0
:1055600040E85FE30E94250488232CF481E090E06A
:105570009E838D833FC06F81788589859A8520E0E1
:105580003FEF4FE757E40E94C50318164CF56B85B3
:105590007C858D859E8520E030E040E251E40E94CC
:1055A0001F02DC01CB01BC01CD010E944900DC01DE
:1055B000CB019E838D830FC088EC90E09C838B830E
:1055C0008B819C810197F1F79C838B838D819E81D8
:1055D00001979E838D838D819E81009769F714C00A
:1055E0006F81788589859A850E944900DC01CB010D
:1055F0009E838D838D819E819A83898389819A81FF
:105600000197F1F79A83898389AD882319F40E9461
:10561000D4148BAF8BAD813021F40E94FA218AAF74
:1056200006C08BAD823019F40E9498238AAF8AADF0
:1056300060E00E94DF288AAD482F50E08BAD282F14
:1056400030E0CA01B9010E943A258AAF8AAD60E014
:105650000E94DF280E94AA2789AFD6CFA1E21A2E86
:10566000AA1BBB1BFD010DC0AA1FBB1FEE1FFF1F06
:10567000A217B307E407F50720F0A21BB30BE40B56
:10568000F50B661F771F881F991F1A9469F760959D
:105690007095809590959B01AC01BD01CF01089557
:1056A0002F923F924F925F926F927F928F929F9232
:1056B000AF92BF92CF92DF92EF92FF920F931F9320
:1056C000CF93DF93CDB7DEB7CA1BDB0B0FB6F894D1
:1056D000DEBF0FBECDBF09942A88398848885F8411
:1056E0006E847D848C849B84AA84B984C884DF8082
:1056F000EE80FD800C811B81AA81B981CE0FD11D66
:105700000FB6F894DEBF0FBECDBFED010895F8943B
:02571000FFCFC9
:105712005365742041646D696E2773007061737301
:10572200776F72643A20002A0053657420677565AA
:1057320073742773003020547269616C73204C6556
:10574200667400506C65617365207761697400202E
:105752005365636F6E6473204C6566740043686FB3
:105762006F736520796F7572206D6F64653A0031D1
:105772002D41646D696E20322D4775657374004149
:10578200646D696E204D6F64650057726F6E67209D
:1057920070617373776F726421004775657374204B
:1057A2004D6F64650057726F6E67204D6F6465219F
:1057B2000057656C636F6D6520486F6D6500313A07
:1057C200526F6F6D3100323A526F6F6D3200333A61
:1057D200526F6F6D3300343A41430057656C636F0B
:1057E2006D6520546F204F757200486F75736500A8
:1057F200526F6F6D203100353A204F4E00363A20FD
:105802004F464600526F6F6D203200526F6F6D200F
:1058120033004143005365742054656D70657261B5
:10582200747572653A004300313A50726576696F59
:105832007573204D656E7500323A4C6F67204F7557
:105842007400486900000000000000000037383989
:105852002F3435362A3132332D43303D2B000102AD
:0658620003040506070027
:00000001FF
