:100000000C942A000C9447000C9447000C94470071
:100010000C9447000C9447000C9447000C94470044
:100020000C9447000C9421110C9447000C94470049
:100030000C9447000C9406110C9447000C94470054
:100040000C9447000C9447000C9447000C94470014
:100050000C94470011241FBECFE5D8E0DEBFCDBF12
:1000600011E0A8E6B1E001C01D92AB36B107E1F79F
:1000700011E0A0E6B0E0E8E9F3E202C005900D92DD
:10008000A836B107D9F70E9426100C94CA110C9417
:100090000000EF92FF920F931F937B018C0120E0F1
:1000A00030E040E05FE40E94F50388238CF0C80153
:1000B000B70120E030E040E05FE40E94C1010E940F
:1000C000B3049B01AC01205030404040504806C072
:1000D000C801B7010E94B3049B01AC01B901CA0178
:1000E0001F910F91FF90EF900895A0E0B0E0EBE733
:1000F000F0E00C949311DC012B01FA019C919230F9
:1001000008F439C1EB018881823008F433C194309E
:1001100069F4843009F02FC111969C91119789815F
:10012000981709F428C1A0E6B0E025C1843009F48D
:1001300021C18230A9F4923009F01DC19A01AD01AC
:1001400088E0EA010990AE01E90109929E0181501F
:10015000C1F7E201898111969C918923818308C1AD
:10016000923009F407C112962D903C901397EB0141
:100170008A819B811496AD90BD90CD90DC901797AD
:10018000EC80FD800E811F819101281B390BB90184
:1001900037FF04C066277727621B730B6032710537
:1001A0000CF061C0121613066CF537014801062EDB
:1001B00004C096948794779467940A94D2F721E0C8
:1001C00030E040E050E004C0220F331F441F551FB1
:1001D0006A95D2F721503040404050402E213F21B7
:1001E00040235123211531054105510521F021E01E
:1001F00030E040E050E079018A01E628F72808293C
:1002000019293CC0232BD1F1260E371E350146019A
:10021000062E04C096948794779467940A94D2F734
:1002200021E030E040E050E004C0220F331F441FC3
:10023000551F6A95D2F721503040404050402A2146
:100240003B214C215D21211531054105510521F04E
:1002500021E030E040E050E059016A01A628B728CB
:10026000C828D9280BC0821593052CF01C01AA249C
:10027000BB24650103C0EE24FF24870111969C91E5
:10028000D20111968C91981709F445C0992339F041
:10029000A80197012A193B094C095D0906C0A6016E
:1002A00095012E193F09400B510B57FD08C01182D3
:1002B0003382228224833583468357831DC081E0A5
:1002C00081833382228288279927DC01821B930B4A
:1002D000A40BB50B84839583A683B7830DC0220F2F
:1002E000331F441F551F24833583468357838281E0
:1002F000938101979383828324813581468157813D
:10030000DA01C9010197A109B1098F5F9F4FAF4F72
:10031000BF4328F30BC0918333822282EA0CFB1C7B
:100320000C1D1D1DE482F5820683178383E0808304
:10033000248135814681578157FF1AC0C901AA27F8
:1003400097FDA095BA2F81709070A070B0705695EF
:10035000479537952795822B932BA42BB52B848318
:100360009583A683B7838281938101969383828349
:10037000DF0101C0D201CD01CDB7DEB7E2E10C94BF
:10038000AF11A0E2B0E0E7ECF1E00C949F116983BB
:100390007A838B839C832D833E834F835887E9E048
:1003A000EE2EF12CEC0EFD1ECE010196B7010E943F
:1003B0002B068E010F5E1F4FCE010596B8010E94DD
:1003C0002B068A8991E089278A8BC701B801AE0183
:1003D000475E5F4F0E9475000E945605A096E6E0BA
:1003E0000C94BB11A0E2B0E0E8EFF1E00C949F1197
:1003F00069837A838B839C832D833E834F835887C5
:10040000F9E0EF2EF12CEC0EFD1ECE010196B701A6
:100410000E942B068E010F5E1F4FCE010596B8017C
:100420000E942B06C701B801AE01475E5F4F0E94D4
:1004300075000E945605A096E6E00C94BB11A0E260
:10044000B0E0E5E2F2E00C94931169837A838B8348
:100450009C832D833E834F835887CE010196BE0136
:10046000675F7F4F0E942B06CE010596BE016F5E2F
:100470007F4F0E942B069985923088F089898230BF
:10048000C8F0943019F4823051F404C0843029F457
:10049000923081F480E690E0C6C0923049F420E0CA
:1004A0009A858A89981321E02A87CE010996BBC0D4
:1004B000823049F420E09A858A89981321E02A8BBA
:1004C000CE014196B0C02D843E844F8458886D88FB
:1004D0007E888F88988CEE24FF248701AA24BB2471
:1004E000650140E050E060E070E0E0E0F0E0C10174
:1004F00081709070892BE9F0E60CF71C081D191D1E
:100500009A01AB012A0D3B1D4C1D5D1D80E090E062
:10051000A0E0B0E0E614F7040805190520F481E036
:1005200090E0A0E0B0E0BA01A901480F591F6A1F8E
:100530007B1FAA0CBB1CCC1CDD1C97FE08C081E0F5
:1005400090E0A0E0B0E0A82AB92ACA2ADB2A3196B6
:10055000E032F10549F0660C771C881C991C569412
:10056000479437942794C3CFFA85EA892B893C892D
:100570008B859C85280F391F2E5F3F4F17C0CA01FE
:1005800081709070892B61F016950795F794E79428
:1005900080E090E0A0E0B0E8E82AF92A0A2B1B2BC3
:1005A00076956795579547952F5F3F4F77FDE7CF36
:1005B0000CC0440F551F661F771F17FD4160EE0CDE
:1005C000FF1C001F111F21503040403090E05907A0
:1005D00090E0690790E4790760F32B8F3C8FDB0193
:1005E000CA018F779070A070B07080349105A1051A
:1005F000B10561F447FD0AC0E114F10401051105DC
:1006000029F0405C5F4F6F4F7F4F40781A8EFE1786
:1006100011F081E08A8F4D8F5E8F6F8F78A383E01A
:10062000898FCE0149960E945605A096E2E10C946E
:10063000AF11A8E1B0E0EFE1F3E00C949B11698306
:100640007A838B839C832D833E834F835887B9E0C5
:10065000EB2EF12CEC0EFD1ECE010196B7010E948F
:100660002B068E010F5E1F4FCE010596B8010E942A
:100670002B062985223008F47EC03989323010F4E7
:10068000B8017CC08A859A8989278A87243011F02D
:10069000223031F4231709F06EC060E670E06EC0BE
:1006A000343039F41D861E861F86188A1C861B86E8
:1006B00004C0323021F484E08987B7015FC02B8504
:1006C0003C858B899C89281B390B3C872B87ED84C3
:1006D000FE840F851889AD88BE88CF88D88CEA142F
:1006E000FB040C051D0540F4EE0CFF1C001F111F40
:1006F000215030403C872B8720E030E040E050E044
:1007000080E090E0A0E0B0E460E070E0EA14FB0478
:100710000C051D0540F0282B392B4A2B5B2BEA18C2
:10072000FB080C091D09B695A79597958795EE0CC2
:10073000FF1C001F111F6F5F7F4F6F31710531F775
:10074000DA01C9018F779070A070B0708034910584
:10075000A105B10561F427FD0AC0E114F10401050A
:10076000110529F0205C3F4F4F4F5F4F20782D87B8
:100770003E874F87588BBE01675F7F4FCB010E943A
:1007800056056896EAE00C94B711A8E1B0E0EBECEE
:10079000F3E00C949F1169837A838B839C832D8370
:1007A0003E834F83588789E0E82EF12CEC0EFD1E26
:1007B000CE010196B7010E942B068E010F5E1F4FDE
:1007C000CE010596B8010E942B068985823040F043
:1007D0008989823028F0C701B8010E94A30601C0B0
:1007E0008FEF6896E6E00C94BB11A8E1B0E0EBEF68
:1007F000F3E00C949F1169837A838B839C832D8310
:100800003E834F83588789E0E82EF12CEC0EFD1EC5
:10081000CE010196B7010E942B068E010F5E1F4F7D
:10082000CE010596B8010E942B068985823040F0E2
:100830008989823028F0C701B8010E94A30601C04F
:100840008FEF6896E6E00C94BB11A8E1B0E0EBE214
:10085000F4E00C949F1169837A838B839C832D83AE
:100860003E834F83588789E0E82EF12CEC0EFD1E65
:10087000CE010196B7010E942B068E010F5E1F4F1D
:10088000CE010596B8010E942B068985823040F082
:100890008989823028F0C701B8010E94A30601C0EF
:1008A00081E06896E6E00C94BB11A8E0B0E0EBE5CF
:1008B000F4E00C949C119B01AC0183E08983DA0184
:1008C000C9018827B7FD83959927AA27BB27B82E8A
:1008D000211531054105510519F482E089833AC09B
:1008E0008823A9F0203080E0380780E0480780E8BE
:1008F000580729F460E070E080E09FEC30C0EE24FF
:10090000FF248701E21AF30A040B150B02C07901D8
:100910008A018EE1C82ED12CDC82CB82ED82FE8250
:100920000F831887C801B7010E94070501971816A1
:10093000190684F4082E04C0EE0CFF1C001F111FC2
:100940000A94D2F7ED82FE820F831887C81AD90A5B
:10095000DC82CB82BA82CE0101960E94560528968F
:10096000E9E00C94B811ACE0B0E0E9EBF4E00C94F1
:10097000A31169837A838B839C83CE010196BE0188
:100980006B5F7F4F0E942B068D81823061F1823038
:1009900050F1843021F48E81882351F12EC02F81B3
:1009A000388537FD20C06E812F3131051CF066235C
:1009B000F9F023C08EE190E0821B930B29853A85E4
:1009C0004B855C8504C056954795379527958A9544
:1009D000D2F76623B1F050954095309521953F4F61
:1009E0004F4F5F4F0EC020E030E040E050E009C0C4
:1009F0002FEF3FEF4FEF5FE704C020E030E040E033
:100A000050E8B901CA012C96E2E00C94BF11EF92B4
:100A1000FF920F931F937B018C0180E0E81680E02A
:100A2000F80681E0080780E0180788F48FEFE816E1
:100A3000F1040105110531F028F088E090E0A0E014
:100A4000B0E017C080E090E0A0E0B0E012C080E02D
:100A5000E81680E0F80680E0080781E0180728F033
:100A600088E190E0A0E0B0E004C080E190E0A0E088
:100A7000B0E020E230E040E050E0281B390B4A0BA8
:100A80005B0B04C016950795F794E7948A95D2F707
:100A9000F701E859FF4F8081281B310941095109AD
:100AA000C9011F910F91FF90EF900895DF92EF928F
:100AB000FF920F931F93FC01E480F580068117815C
:100AC000D1808081823048F480E090E0A0E1B0E005
:100AD000E82AF92A0A2B1B2BA5C0843009F49FC0F1
:100AE000823021F4EE24FF24870105C0E114F104D3
:100AF0000105110519F4E0E0F0E096C06281738110
:100B00009FEF623879070CF05BC022E83FEF261BAD
:100B1000370B2A3131052CF020E030E040E050E086
:100B20002AC0B801A701022E04C076956795579593
:100B300047950A94D2F781E090E0A0E0B0E004C0CD
:100B4000880F991FAA1FBB1F2A95D2F70197A109E9
:100B5000B1098E219F21A023B1230097A105B105E2
:100B600021F081E090E0A0E0B0E09A01AB01282BF9
:100B7000392B4A2B5B2BDA01C9018F779070A0705B
:100B8000B07080349105A105B10539F427FF09C083
:100B9000205C3F4F4F4F5F4F04C0215C3F4F4F4F92
:100BA0005F4FE0E0F0E02030A0E03A07A0E04A0725
:100BB000A0E45A0710F0E1E0F0E079018A0127C0D3
:100BC0006038710564F5FB01E158FF4FD801C7019A
:100BD0008F779070A070B07080349105A105B10539
:100BE00039F4E7FE0DC080E490E0A0E0B0E004C07E
:100BF0008FE390E0A0E0B0E0E80EF91E0A1F1B1F93
:100C000017FF05C016950795F794E794319687E08E
:100C100016950795F794E7948A95D1F705C0EE24C9
:100C2000FF248701EFEFF0E06E2F67956627679549
:100C3000902F9F77D794DD24D7948E2F8695492FB8
:100C4000462B582F5D29B701CA011F910F91FF90C4
:100C5000EF90DF900895FC01DB01408151812281FA
:100C6000622F6F7770E0221F2227221F9381892F26
:100C7000880F822B282F30E0991F9927991F1196F2
:100C80009C93119721153105A9F541155105610571
:100C9000710511F482E037C082E89FEF13969C93B0
:100CA0008E9312979A01AB0167E0220F331F441F06
:100CB000551F6A95D1F783E08C930DC0220F331F27
:100CC000441F551F12968D919C911397019713966F
:100CD0009C938E931297203080E0380780E048077D
:100CE00080E4580758F314962D933D934D935C93ED
:100CF000179708952F3F310579F441155105610586
:100D0000710519F484E08C93089564FF03C081E0B9
:100D10008C9312C01C9210C02F57304013963C93F6
:100D20002E93129783E08C9387E0440F551F661F24
:100D3000771F8A95D1F7706414964D935D936D93E8
:100D40007C93179708951F93DC01FB019C919230CF
:100D500008F447C08081823008F443C0943051F4D5
:100D600011961C91843099F58181682F70E0611B88
:100D700071093FC0843021F0923031F48230B9F1F2
:100D80008181882389F12DC011961C9111978230A1
:100D9000F1F081811817D9F412962D913C91139797
:100DA000828193818217930794F028173907BCF04A
:100DB00014968D919D910D90BC91A02D248135812B
:100DC00046815781281739074A075B0718F4112312
:100DD00041F00AC082179307A407B50740F4112316
:100DE00019F061E070E005C06FEF7FEF02C060E0D6
:100DF00070E0CB011F910895DF93CF9300D00F9245
:100E0000CDB7DEB783E390E09B838A8380E8898354
:100E1000E9E2F0E08A818083E0E4F0E08A819B816E
:100E2000892F99278083ABE2B0E0EBE2F0E080818C
:100E30008D7F8C93ABE2B0E0EBE2F0E080818E7FBF
:100E40008C93AAE2B0E0EAE2F0E0808180688C93C3
:100E5000AAE2B0E0EAE2F0E0808180618C93AAE24D
:100E6000B0E0EAE2F0E0808188608C93AAE2B0E032
:100E7000EAE2F0E080818B7F8C93898184608983B2
:100E800089818260898389818F7B898389818F7E33
:100E9000898389818F7D898389818860898389811C
:100EA0008E7F8983E0E4F0E0898180830F900F904A
:100EB0000F90CF91DF910895DF93CF930F92CDB72D
:100EC000DEB78983EBE2F0E08081829586958770BA
:100ED000882F90E0817090700097A1F3ECE2F0E031
:100EE000898180830F90CF91DF910895DF93CF9315
:100EF000CDB7DEB7EBE2F0E080818823DCF7ECE2EF
:100F0000F0E08081CF91DF910895DF93CF93CDB74B
:100F1000DEB72A970FB6F894DEBF0FBECDBF898328
:100F20006A838981282F30E03A87298789859A85C5
:100F30008130910509F46DC029853A85223031054B
:100F400009F4C9C089859A85009709F0E9C08A81AA
:100F5000282F30E038872F838F8198858130910545
:100F600021F12F813885223031052CF48F8198852D
:100F7000009761F046C02F8138852230310521F17C
:100F80008F8198858330910571F13BC0A5E5B0E074
:100F9000E5E5F0E080818E7F8C93A5E5B0E0E5E5A6
:100FA000F0E0808182608C932CC0A5E5B0E0E5E59F
:100FB000F0E0808181608C93A5E5B0E0E5E5F0E0AC
:100FC000808182608C931DC0A5E5B0E0E5E5F0E08E
:100FD00080818D7F8C93A5E5B0E0E5E5F0E0808130
:100FE00081608C930EC0A5E5B0E0E5E5F0E080817E
:100FF0008E7F8C93A5E5B0E0E5E5F0E080818D7F04
:101000008C93ABE5B0E0EBE5F0E0808180648C93FD
:1010100087C08A81282F30E03E832D838D819E8179
:101020008130910521F12D813E81223031052CF452
:101030008D819E81009761F046C02D813E812230D6
:10104000310521F18D819E818330910571F13BC085
:10105000A5E5B0E0E5E5F0E080818B7F8C93A5E528
:10106000B0E0E5E5F0E0808188608C932CC0A5E5D8
:10107000B0E0E5E5F0E0808184608C93A5E5B0E028
:10108000E5E5F0E0808188608C931DC0A5E5B0E0C7
:10109000E5E5F0E08081877F8C93A5E5B0E0E5E5AC
:1010A000F0E0808184608C930EC0A5E5B0E0E5E5BA
:1010B000F0E080818B7F8C93A5E5B0E0E5E5F0E082
:1010C0008081877F8C93ABE5B0E0EBE5F0E0808139
:1010D00080688C9325C08A81282F30E03C832B8345
:1010E0008B819C81009731F02B813C81213031052F
:1010F00049F00FC0A4E5B0E0E4E5F0E080818F7B2B
:101100008C9307C0A4E5B0E0E4E5F0E08081806462
:101110008C93ABE5B0E0EBE5F0E0808180628C93EE
:101120002A960FB6F894DEBF0FBECDBFCF91DF91E8
:101130000895DF93CF9300D00F92CDB7DEB78983A8
:101140008981282F30E03B832A838A819B818130EB
:10115000910589F02A813B8122303105A1F08A81F5
:101160009B810097B9F4ABE5B0E0EBE5F0E080815E
:101170008F7B8C930FC0ABE5B0E0EBE5F0E08081B6
:101180008F778C9307C0ABE5B0E0EBE5F0E08081B2
:101190008F7D8C930F900F900F90CF91DF910895DA
:1011A000DF93CF93CDB7DEB727970FB6F894DEBFA6
:1011B0000FBECDBF89836A834B838A81883008F054
:1011C000EAC08B81813009F06FC08981282F30E01F
:1011D0003F832E838E819F818130910549F12E813D
:1011E0003F81223031052CF48E819F81009761F080
:1011F000D2C02E813F812230310571F18E819F81D5
:1012000083309105E9F1C7C0AAE3B0E0EAE3F0E07A
:101210008081482F8A81282F30E081E090E0022EE3
:1012200002C0880F991F0A94E2F7842B8C93B3C0F5
:10123000A7E3B0E0E7E3F0E08081482F8A81282F20
:1012400030E081E090E0022E02C0880F991F0A94DE
:10125000E2F7842B8C939FC0A4E3B0E0E4E3F0E0DA
:101260008081482F8A81282F30E081E090E0022E93
:1012700002C0880F991F0A94E2F7842B8C938BC0CD
:10128000A1E3B0E0E1E3F0E08081482F8A81282FDC
:1012900030E081E090E0022E02C0880F991F0A948E
:1012A000E2F7842B8C9377C08B81882309F073C07D
:1012B0008981282F30E03D832C838C819D81813072
:1012C000910559F12C813D81223031052CF48C811E
:1012D0009D81009769F05FC02C813D8122303105EE
:1012E00089F18C819D818330910509F440C053C000
:1012F000AAE3B0E0EAE3F0E08081482F8A81282F5A
:1013000030E081E090E0022E02C0880F991F0A941D
:10131000E2F7809584238C933EC0A7E3B0E0E7E337
:10132000F0E08081482F8A81282F30E081E090E032
:10133000022E02C0880F991F0A94E2F78095842339
:101340008C9329C0A4E3B0E0E4E3F0E08081482F6F
:101350008A81282F30E081E090E0022E02C0880FC1
:10136000991F0A94E2F7809584238C9314C0A1E31B
:10137000B0E0E1E3F0E08081482F8A81282F30E05F
:1013800081E090E0022E02C0880F991F0A94E2F7D4
:10139000809584238C9327960FB6F894DEBF0FBEFA
:1013A000CDBFCF91DF910895DF93CF93CDB7DEB757
:1013B00027970FB6F894DEBF0FBECDBF89836A832F
:1013C0004B838A81883008F0EAC08B81813009F034
:1013D0006FC08981282F30E03F832E838E819F81CB
:1013E0008130910549F12E813F81223031052CF465
:1013F0008E819F81009761F0D2C02E813F81223083
:10140000310571F18E819F8183309105E9F1C7C06B
:10141000ABE3B0E0EBE3F0E08081482F8A81282F36
:1014200030E081E090E0022E02C0880F991F0A94FC
:10143000E2F7842B8C93B3C0A8E3B0E0E8E3F0E0DC
:101440008081482F8A81282F30E081E090E0022EB1
:1014500002C0880F991F0A94E2F7842B8C939FC0D7
:10146000A5E3B0E0E5E3F0E08081482F8A81282FF2
:1014700030E081E090E0022E02C0880F991F0A94AC
:10148000E2F7842B8C938BC0A2E3B0E0E2E3F0E0C0
:101490008081482F8A81282F30E081E090E0022E61
:1014A00002C0880F991F0A94E2F7842B8C9377C0AF
:1014B0008B81882309F073C08981282F30E03D8318
:1014C0002C838C819D818130910559F12C813D8146
:1014D000223031052CF48C819D81009769F05FC02A
:1014E0002C813D812230310589F18C819D818330B1
:1014F000910509F440C053C0ABE3B0E0EBE3F0E08A
:101500008081482F8A81282F30E081E090E0022EF0
:1015100002C0880F991F0A94E2F7809584238C9368
:101520003EC0A8E3B0E0E8E3F0E08081482F8A8184
:10153000282F30E081E090E0022E02C0880F991F32
:101540000A94E2F7809584238C9329C0A5E3B0E048
:10155000E5E3F0E08081482F8A81282F30E081E0A8
:1015600090E0022E02C0880F991F0A94E2F780953E
:1015700084238C9314C0A2E3B0E0E2E3F0E0808126
:10158000482F8A81282F30E081E090E0022E02C0AF
:10159000880F991F0A94E2F7809584238C932796ED
:1015A0000FB6F894DEBF0FBECDBFCF91DF91089587
:1015B000DF93CF9300D000D00F92CDB7DEB78983F1
:1015C0006A838A81883008F06FC08981282F30E0D3
:1015D0003D832C834C815D814130510549F18C81E3
:1015E0009D818230910534F42C813D812115310596
:1015F00061F057C04C815D814230510561F18C81B1
:101600009D8183309105D1F14CC0E9E3F0E0808108
:10161000282F30E08A81882F90E0A90102C05595DB
:1016200047958A95E2F7CA01582F51705B833EC0F7
:10163000E6E3F0E08081282F30E08A81882F90E077
:10164000A90102C0559547958A95E2F7CA01582F1E
:1016500051705B832BC0E3E3F0E08081282F30E002
:101660008A81882F90E0A90102C0559547958A95F7
:10167000E2F7CA01582F51705B8318C0E0E3F0E035
:101680008081282F30E08A81882F90E0A90102C054
:10169000559547958A95E2F7CA01582F51705B839B
:1016A00005C08FEF8B8302C09FEF9B838B810F90D0
:1016B0000F900F900F900F90CF91DF910895DF93CF
:1016C000CF9300D000D0CDB7DEB789836A838981FC
:1016D000282F30E03C832B838B819C8181309105C6
:1016E000D1F02B813C81223031052CF48B819C81FF
:1016F000009761F01EC02B813C812230310581F0C2
:101700008B819C818330910581F013C0EAE3F0E086
:101710008A8180830EC0E7E3F0E08A81808309C07C
:10172000E4E3F0E08A81808304C0E1E3F0E08A81B1
:1017300080830F900F900F900F90CF91DF910895BD
:10174000DF93CF9300D000D0CDB7DEB789836A8313
:101750008981282F30E03C832B838B819C818130D1
:101760009105D1F02B813C81223031052CF48B8105
:101770009C81009761F01EC02B813C812230310595
:1017800081F08B819C818330910581F013C0EBE364
:10179000F0E08A8180830EC0E8E3F0E08A818083F4
:1017A00009C0E5E3F0E08A81808304C0E2E3F0E071
:1017B0008A8180830F900F900F900F90CF91DF91CF
:1017C0000895DF93CF9300D000D0CDB7DEB78983E3
:1017D0006A838A81883008F06EC08981282F30E0C2
:1017E0003C832B838B819C818130910549F12B8136
:1017F0003C81223031052CF48B819C81009761F073
:101800005AC02B813C812230310571F18B819C8142
:1018100083309105E9F14FC0A9E3B0E0E9E3F0E0DE
:101820008081482F8A81282F30E081E090E0022ECD
:1018300002C0880F991F0A94E2F784278C933BC05B
:10184000A6E3B0E0E6E3F0E08081482F8A81282F0C
:1018500030E081E090E0022E02C0880F991F0A94C8
:10186000E2F784278C9327C0A3E3B0E0E3E3F0E042
:101870008081482F8A81282F30E081E090E0022E7D
:1018800002C0880F991F0A94E2F784278C9313C033
:10189000A0E3B0E0E0E3F0E08081482F8A81282FC8
:1018A00030E081E090E0022E02C0880F991F0A9478
:1018B000E2F784278C930F900F900F900F90CF91A9
:1018C000DF910895DF93CF930F92CDB7DEB7898371
:1018D000A6E2B0E0E6E2F0E0808180688C93A7E2C7
:1018E000B0E0E7E2F0E0808180648C93A7E2B0E0B2
:1018F000E7E2F0E080818F778C93A7E2B0E0E7E247
:10190000F0E080818F7D8C93A6E2B0E0E6E2F0E02B
:101910008081887F8C93A6E2B0E0E6E2F0E09081DF
:101920008981892B8C930F90CF91DF910895DF935C
:10193000CF930F92CDB7DEB78983A7E2B0E0E7E29D
:10194000F0E08081807E8C93A7E2B0E0E7E2F0E0F7
:1019500090818981892B8C93A6E2B0E0E6E2F0E0E9
:10196000808180648C93E6E2F0E0808182958F70C4
:10197000882F90E0817090700097A9F3A6E2B0E004
:10198000E6E2F0E080818F7E8C93E4E2F0E08081FB
:1019900091810F90CF91DF910895DF93CF93CDB7D1
:1019A000DEB7A6E2B0E0E6E2F0E080818F778C93CC
:1019B000CF91DF910895DF93CF9300D000D00F92A5
:1019C000CDB7DEB789837B836A838981282F30E096
:1019D0003D832C838C819D818333910551F12C8132
:1019E0003D81243331055CF48C819D8181339105E7
:1019F000B1F02C813D8122333105B1F065C08C817D
:101A00009D8185339105F9F02C813D812533310588
:101A1000ACF08C819D8186339105B1F155C0EA818E
:101A2000FB8181E0808350C0EA81FB8182E080837A
:101A30004BC0EA81FB8183E0808346C0EA81FB8161
:101A400084E0808341C0EA81FB818081813031F470
:101A500082E060E041E00E94D40936C0EA81FB8167
:101A60008081823031F482E061E041E00E94D4095B
:101A70002BC0EA81FB818081833031F582E062E016
:101A800041E00E94D40920C0EA81FB81808181303D
:101A900031F482E060E040E00E94D40915C0EA81A0
:101AA000FB818081823031F482E061E040E00E947D
:101AB000D4090AC0EA81FB818081833029F482E065
:101AC00062E040E00E94D4090F900F900F900F90B9
:101AD0000F90CF91DF910895DF93CF93CDB7DEB70D
:101AE00027970FB6F894DEBF0FBECDBF89837B83E7
:101AF0006A835D834C833F832E838981282F30E066
:101B00008E819F812817390750F4EC81FD818981EE
:101B1000808383E062E041E00E94D40905C083E055
:101B200062E040E00E94D409EA81FB81108227969E
:101B30000FB6F894DEBF0FBECDBFCF91DF910895F1
:101B4000DF93CF9300D0CDB7DEB79A8389838981A5
:101B50009A818333910530F083E063E041E00E9495
:101B6000D40905C083E063E040E00E94D4090F90EF
:101B70000F90CF91DF910895DF93CF9300D0CDB731
:101B8000DEB79A83898389819A8127E0813D920714
:101B900030F082E064E041E00E94D40905C082E0B8
:101BA00064E040E00E94D4090F900F90CF91DF9144
:101BB0000895EF92FF920F931F93DF93CF93CDB7CA
:101BC000DEB7EE970FB6F894DEBF0FBECDBF9EAF67
:101BD0008DAF83E064E041E00E94D40980E090E0B2
:101BE000A0E2B1E489AB9AABABABBCAB69A97AA973
:101BF0008BA99CA92BEA3AEA4AE250E40E941F0210
:101C0000DC01CB018DA79EA7AFA7B8AB6DA57EA5C4
:101C10008FA598A920E030E040E85FE30E9425040A
:101C200088231CF481E08CA791C06DA57EA58FA5AB
:101C300098A920E030E04FE753E40E94C50318164E
:101C40000CF07BC069A97AA98BA99CA920E030E09F
:101C50004AE754E40E941903DC01CB0188A799A745
:101C6000AAA7BBA768A579A58AA59BA520E030E017
:101C70004AEF54E40E941F02DC01CB018CA39DA318
:101C8000AEA3BFA36CA17DA18EA19FA120E030E0F7
:101C900040E85FE30E94250488232CF481E090E073
:101CA0009BA38AA33FC06CA17DA18EA19FA120E030
:101CB0003FEF4FE757E40E94C50318164CF568A59F
:101CC00079A58AA59BA520E030E040E251E40E947E
:101CD0001F02DC01CB01BC01CD010E944900DC01E7
:101CE000CB019BA38AA30FC088EC90E099A388A3A3
:101CF00088A199A10197F1F799A388A38AA19BA133
:101D000001979BA38AA38AA19BA1009769F724C08E
:101D10006CA17DA18EA19FA10E944900DC01CB0195
:101D20009BA38AA38AA19BA19F8F8E8F8E8D9F8D4F
:101D30000197F1F79F8F8E8F0FC06DA57EA58FA5A0
:101D400098A90E944900DC01CB018CA78CA58D8F3E
:101D50008D8D8A95F1F78D8F83E064E040E00E94DD
:101D6000D409ECE4F0E011821082EEE4F0E081E4CA
:101D70008083E8E5F0E080E28083E8E5F0E084E05D
:101D80008083E8E5F0E08081882F90E08072907099
:101D90000097B9F3ECE4F0E011821082EEE4F0E099
:101DA00081E08083E8E5F0E080E28083E8E5F0E030
:101DB00084E08083EDADFEAD11821082E8E5F0E0B5
:101DC0008081882F90E0807290700097B9F3E6E4EC
:101DD000F0E0808191817C0100E010E0EDADFEAD8E
:101DE00080819181CC01A0E0B0E02FEF3FEF40E097
:101DF00050E0BC01CD010E943E11DC01CB018E0DF3
:101E00009F1DA01FB11F89AF9AAFABAFBCAF69AD2B
:101E10007AAD8BAD9CAD0E945504DC01CB01BC01B9
:101E2000CD0129E23CE349EE53E40E941903DC01B1
:101E3000CB018DAB9EABAFABB8AF6DA97EA98FA91F
:101E400098AD20E030E040EA52E40E94F503882398
:101E50000CF478C080E063E040E00E94D40980E0A8
:101E600090E0AAEFB3E4898F9A8FAB8FBC8F698D16
:101E70007A8D8B8D9C8D20E030E04AEF54E40E94F7
:101E80001F02DC01CB018D8B9E8BAF8BB88F6D89D0
:101E90007E898F89988D20E030E040E85FE30E94E2
:101EA000250488232CF481E090E09C8B8B8B3FC031
:101EB0006D897E898F89988D20E03FEF4FE757E449
:101EC0000E94C50318164CF5698D7A8D8B8D9C8DFB
:101ED00020E030E040E251E40E941F02DC01CB012F
:101EE000BC01CD010E944900DC01CB019C8B8B8B96
:101EF0000FC088EC90E09A8B898B89899A89019729
:101F0000F1F79A8B898B8B899C8901979C8B8B8BA2
:101F10008B899C89009769F78CC06D897E898F8930
:101F2000988D0E944900DC01CB019C8B8B8B8B89A7
:101F30009C89988B8F878F8598890197F1F7988B6B
:101F40008F8777C080E063E041E00E94D40980E0A1
:101F500090E0AAEFB3E48B879C87AD87BE876B8543
:101F60007C858D859E8520E030E04AEF54E40E9418
:101F70001F02DC01CB018F839887A987BA876F8105
:101F8000788589859A8520E030E040E85FE30E940B
:101F9000250488232CF481E090E09E838D833FC04C
:101FA0006F81788589859A8520E03FEF4FE757E478
:101FB0000E94C50318164CF56B857C858D859E8522
:101FC00020E030E040E251E40E941F02DC01CB013E
:101FD000BC01CD010E944900DC01CB019E838D83B1
:101FE0000FC088EC90E09C838B838B819C81019750
:101FF000F1F79C838B838D819E8101979E838D83D6
:102000008D819E81009769F714C06F8178858985DD
:102010009A850E944900DC01CB019E838D838D81CE
:102020009E819A83898389819A810197F1F79A83A6
:102030008983EE960FB6F894DEBF0FBECDBFCF9169
:10204000DF911F910F91FF90EF900895DF93CF9351
:10205000CDB7DEB760970FB6F894DEBF0FBECDBF29
:102060001F86188ACE010F969E878D87CE014096D7
:102070009C878B8780E063E041E00E94D00880E08D
:1020800063E040E00E94D40983E064E041E00E9404
:10209000D00883E06FEF0E94A00B83E060E040E097
:1020A0000E94D00883E061E041E00E94D00883E014
:1020B00062E041E00E94D00883E062E040E00E94DC
:1020C000D40983E063E041E00E94D00883E063E04C
:1020D00040E00E94D40982E064E041E00E94D00820
:1020E00082E060E041E00E94D00882E061E041E0EF
:1020F0000E94D00882E062E041E00E94D00886E0C1
:102100000E94620C0E94FC067894E9E5F0E084E00D
:102110008083EFE4F0E0108280E00E94970C9A87C1
:10212000898789859A85CC01A0E0B0E028E833E171
:1021300040E050E0BC01CD010E943E11DC01CB012A
:102140002FEF33E040E050E0BC01CD010E9471115F
:10215000DA01C90198878F8381E00E94970C9E83E2
:102160008D838D819E81CC01A0E0B0E028E833E131
:1021700040E050E0BC01CD010E943E11DC01CB01EA
:102180002FEF33E040E050E0BC01CD010E9471111F
:10219000DA01C9019C838B838B819C812AE030E02A
:1021A000B9010E945D11CB019A83898388E691E091
:1021B0000E94D90D89819A810E94A00D8F819885F6
:1021C0000E94BC0D8F85843061F480916A012D8559
:1021D0003E854B855C85E981FA81B9019F010E94AA
:1021E0006C0D8889282F30E089819A8182179307A6
:1021F00028F483E062E040E00E94D40980916A0103
:102200002D853E85B9010E94DB0C86CF1F920F926F
:102210000FB60F9211248F93EF93FF93DF93CF9319
:10222000CDB7DEB7ECE2F0E0808180936A01CF9118
:10223000DF91FF91EF918F910F900FBE0F901F9044
:1022400018951F920F920FB60F9211248F939F93A0
:10225000DF93CF93CDB7DEB780916801909169018C
:1022600001969093690180936801CF91DF919F91CE
:102270008F910F900FBE0F901F901895629FD00105
:10228000739FF001829FE00DF11D649FE00DF11D31
:10229000929FF00D839FF00D749FF00D659FF00DE0
:1022A0009927729FB00DE11DF91F639FB00DE11DCD
:1022B000F91FBD01CF0111240895AA1BBB1B51E1D9
:1022C00007C0AA1FBB1FA617B70710F0A61BB70BA6
:1022D000881F991F5A95A9F780959095BC01CD014B
:1022E0000895A1E21A2EAA1BBB1BFD010DC0AA1F57
:1022F000BB1FEE1FFF1FA217B307E407F50720F06F
:10230000A21BB30BE40BF50B661F771F881F991FE9
:102310001A9469F760957095809590959B01AC0132
:10232000BD01CF0108952F923F924F925F926F921D
:102330007F928F929F92AF92BF92CF92DF92EF9255
:10234000FF920F931F93CF93DF93CDB7DEB7CA1BD6
:10235000DB0B0FB6F894DEBF0FBECDBF09942A8801
:10236000398848885F846E847D848C849B84AA84A9
:10237000B984C884DF80EE80FD800C811B81AA8136
:10238000B981CE0FD11D0FB6F894DEBF0FBECDBF01
:08239000ED010895F894FFCF60
:102398000000000000000000000102020303030324
:1023A80004040404040404040505050505050505DD
:1023B80005050505050505050606060606060606BD
:1023C80006060606060606060606060606060606A5
:1023D800060606060606060607070707070707078D
:1023E8000707070707070707070707070707070775
:1023F8000707070707070707070707070707070765
:102408000707070707070707070707070707070754
:10241800070707070707070708080808080808083C
:102428000808080808080808080808080808080824
:102438000808080808080808080808080808080814
:102448000808080808080808080808080808080804
:1024580008080808080808080808080808080808F4
:1024680008080808080808080808080808080808E4
:1024780008080808080808080808080808080808D4
:1024880008080808080808080808080808080808C4
:082498000808080808080808FC
:00000001FF
